{
	"Arrays.sol": {
		"Arrays": {
			"abi": [
				{
					"inputs": [
						{
							"internalType": "uint256",
							"name": "",
							"type": "uint256"
						}
					],
					"name": "array",
					"outputs": [
						{
							"internalType": "uint256",
							"name": "",
							"type": "uint256"
						}
					],
					"stateMutability": "view",
					"type": "function"
				},
				{
					"inputs": [],
					"name": "prueba",
					"outputs": [],
					"stateMutability": "nonpayable",
					"type": "function"
				},
				{
					"inputs": [
						{
							"internalType": "uint256",
							"name": "_index",
							"type": "uint256"
						}
					],
					"name": "remove",
					"outputs": [],
					"stateMutability": "nonpayable",
					"type": "function"
				}
			],
			"devdoc": {
				"kind": "dev",
				"methods": {},
				"version": 1
			},
			"evm": {
				"assembly": "    /* \"Arrays.sol\":70:701  contract Arrays{... */\n  mstore(0x40, 0x80)\n  callvalue\n  dup1\n  iszero\n  tag_1\n  jumpi\n  0x00\n  dup1\n  revert\ntag_1:\n  pop\n  dataSize(sub_0)\n  dup1\n  dataOffset(sub_0)\n  0x00\n  codecopy\n  0x00\n  return\nstop\n\nsub_0: assembly {\n        /* \"Arrays.sol\":70:701  contract Arrays{... */\n      mstore(0x40, 0x80)\n      callvalue\n      dup1\n      iszero\n      tag_1\n      jumpi\n      0x00\n      dup1\n      revert\n    tag_1:\n      pop\n      jumpi(tag_2, lt(calldatasize, 0x04))\n      shr(0xe0, calldataload(0x00))\n      dup1\n      0x38d94193\n      eq\n      tag_3\n      jumpi\n      dup1\n      0x4cc82215\n      eq\n      tag_4\n      jumpi\n      dup1\n      0x7cb5946d\n      eq\n      tag_5\n      jumpi\n    tag_2:\n      0x00\n      dup1\n      revert\n        /* \"Arrays.sol\":92:111  uint[] public array */\n    tag_3:\n      tag_6\n      0x04\n      dup1\n      calldatasize\n      sub\n      dup2\n      add\n      swap1\n      tag_7\n      swap2\n      swap1\n      tag_8\n      jump\t// in\n    tag_7:\n      tag_9\n      jump\t// in\n    tag_6:\n      mload(0x40)\n      tag_10\n      swap2\n      swap1\n      tag_11\n      jump\t// in\n    tag_10:\n      mload(0x40)\n      dup1\n      swap2\n      sub\n      swap1\n      return\n        /* \"Arrays.sol\":120:436  function remove(uint _index) public {... */\n    tag_4:\n      tag_12\n      0x04\n      dup1\n      calldatasize\n      sub\n      dup2\n      add\n      swap1\n      tag_13\n      swap2\n      swap1\n      tag_8\n      jump\t// in\n    tag_13:\n      tag_14\n      jump\t// in\n    tag_12:\n      stop\n        /* \"Arrays.sol\":444:698  function prueba() external {... */\n    tag_5:\n      tag_15\n      tag_16\n      jump\t// in\n    tag_15:\n      stop\n        /* \"Arrays.sol\":92:111  uint[] public array */\n    tag_9:\n      0x00\n      dup2\n      dup2\n      sload\n      dup2\n      lt\n      tag_17\n      jumpi\n      0x00\n      dup1\n      revert\n    tag_17:\n      swap1\n      0x00\n      mstore\n      keccak256(0x00, 0x20)\n      add\n      0x00\n      swap2\n      pop\n      swap1\n      pop\n      sload\n      dup2\n      jump\t// out\n        /* \"Arrays.sol\":120:436  function remove(uint _index) public {... */\n    tag_14:\n        /* \"Arrays.sol\":184:189  array */\n      0x00\n        /* \"Arrays.sol\":184:196  array.length */\n      dup1\n      sload\n      swap1\n      pop\n        /* \"Arrays.sol\":175:181  _index */\n      dup2\n        /* \"Arrays.sol\":175:196  _index < array.length */\n      lt\n        /* \"Arrays.sol\":167:235  require(_index < array.length, \"El array no tiene tantos elementos\") */\n      tag_20\n      jumpi\n      mload(0x40)\n      0x08c379a000000000000000000000000000000000000000000000000000000000\n      dup2\n      mstore\n      0x04\n      add\n      tag_21\n      swap1\n      tag_22\n      jump\t// in\n    tag_21:\n      mload(0x40)\n      dup1\n      swap2\n      sub\n      swap1\n      revert\n    tag_20:\n        /* \"Arrays.sol\":253:259  uint i */\n      0x00\n        /* \"Arrays.sol\":262:268  _index */\n      dup2\n        /* \"Arrays.sol\":253:268  uint i = _index */\n      swap1\n      pop\n        /* \"Arrays.sol\":248:407  for (uint i = _index; i< array.length -1; i++){... */\n    tag_23:\n        /* \"Arrays.sol\":287:288  1 */\n      0x01\n        /* \"Arrays.sol\":273:278  array */\n      0x00\n        /* \"Arrays.sol\":273:285  array.length */\n      dup1\n      sload\n      swap1\n      pop\n        /* \"Arrays.sol\":273:288  array.length -1 */\n      tag_26\n      swap2\n      swap1\n      tag_27\n      jump\t// in\n    tag_26:\n        /* \"Arrays.sol\":270:271  i */\n      dup2\n        /* \"Arrays.sol\":270:288  i< array.length -1 */\n      lt\n        /* \"Arrays.sol\":248:407  for (uint i = _index; i< array.length -1; i++){... */\n      iszero\n      tag_24\n      jumpi\n        /* \"Arrays.sol\":320:325  array */\n      0x00\n        /* \"Arrays.sol\":328:329  1 */\n      0x01\n        /* \"Arrays.sol\":326:327  i */\n      dup3\n        /* \"Arrays.sol\":326:329  i+1 */\n      tag_28\n      swap2\n      swap1\n      tag_29\n      jump\t// in\n    tag_28:\n        /* \"Arrays.sol\":320:330  array[i+1] */\n      dup2\n      sload\n      dup2\n      lt\n      tag_30\n      jumpi\n      tag_31\n      tag_32\n      jump\t// in\n    tag_31:\n    tag_30:\n      swap1\n      0x00\n      mstore\n      keccak256(0x00, 0x20)\n      add\n      sload\n        /* \"Arrays.sol\":309:314  array */\n      0x00\n        /* \"Arrays.sol\":315:316  i */\n      dup3\n        /* \"Arrays.sol\":309:317  array[i] */\n      dup2\n      sload\n      dup2\n      lt\n      tag_34\n      jumpi\n      tag_35\n      tag_32\n      jump\t// in\n    tag_35:\n    tag_34:\n      swap1\n      0x00\n      mstore\n      keccak256(0x00, 0x20)\n      add\n        /* \"Arrays.sol\":309:330  array[i] = array[i+1] */\n      dup2\n      swap1\n      sstore\n      pop\n        /* \"Arrays.sol\":290:293  i++ */\n      dup1\n      dup1\n      0x01\n      add\n      swap2\n      pop\n      pop\n        /* \"Arrays.sol\":248:407  for (uint i = _index; i< array.length -1; i++){... */\n      jump(tag_23)\n    tag_24:\n      pop\n        /* \"Arrays.sol\":417:422  array */\n      0x00\n        /* \"Arrays.sol\":417:428  array.pop() */\n      dup1\n      sload\n      dup1\n      tag_37\n      jumpi\n      tag_38\n      tag_39\n      jump\t// in\n    tag_38:\n    tag_37:\n      0x01\n      swap1\n      sub\n      dup2\n      dup2\n      swap1\n      0x00\n      mstore\n      keccak256(0x00, 0x20)\n      add\n      0x00\n      swap1\n      sstore\n      swap1\n      sstore\n        /* \"Arrays.sol\":120:436  function remove(uint _index) public {... */\n      pop\n      jump\t// out\n        /* \"Arrays.sol\":444:698  function prueba() external {... */\n    tag_16:\n        /* \"Arrays.sol\":482:501  array = [1,2,3,4,5] */\n      mload(0x40)\n      dup1\n      0xa0\n      add\n      0x40\n      mstore\n      dup1\n        /* \"Arrays.sol\":491:492  1 */\n      0x01\n        /* \"Arrays.sol\":482:501  array = [1,2,3,4,5] */\n      0xff\n      and\n      dup2\n      mstore\n      0x20\n      add\n        /* \"Arrays.sol\":493:494  2 */\n      0x02\n        /* \"Arrays.sol\":482:501  array = [1,2,3,4,5] */\n      0xff\n      and\n      dup2\n      mstore\n      0x20\n      add\n        /* \"Arrays.sol\":495:496  3 */\n      0x03\n        /* \"Arrays.sol\":482:501  array = [1,2,3,4,5] */\n      0xff\n      and\n      dup2\n      mstore\n      0x20\n      add\n        /* \"Arrays.sol\":497:498  4 */\n      0x04\n        /* \"Arrays.sol\":482:501  array = [1,2,3,4,5] */\n      0xff\n      and\n      dup2\n      mstore\n      0x20\n      add\n        /* \"Arrays.sol\":499:500  5 */\n      0x05\n        /* \"Arrays.sol\":482:501  array = [1,2,3,4,5] */\n      0xff\n      and\n      dup2\n      mstore\n      pop\n        /* \"Arrays.sol\":482:487  array */\n      0x00\n        /* \"Arrays.sol\":482:501  array = [1,2,3,4,5] */\n      swap1\n      0x05\n      tag_42\n      swap3\n      swap2\n      swap1\n      tag_43\n      jump\t// in\n    tag_42:\n      pop\n        /* \"Arrays.sol\":512:521  remove(2) */\n      tag_44\n        /* \"Arrays.sol\":519:520  2 */\n      0x02\n        /* \"Arrays.sol\":512:518  remove */\n      tag_14\n        /* \"Arrays.sol\":512:521  remove(2) */\n      jump\t// in\n    tag_44:\n        /* \"Arrays.sol\":554:555  1 */\n      0x01\n        /* \"Arrays.sol\":542:547  array */\n      0x00\n        /* \"Arrays.sol\":548:549  0 */\n      dup1\n        /* \"Arrays.sol\":542:550  array[0] */\n      dup2\n      sload\n      dup2\n      lt\n      tag_45\n      jumpi\n      tag_46\n      tag_32\n      jump\t// in\n    tag_46:\n    tag_45:\n      swap1\n      0x00\n      mstore\n      keccak256(0x00, 0x20)\n      add\n      sload\n        /* \"Arrays.sol\":542:555  array[0] == 1 */\n      eq\n        /* \"Arrays.sol\":535:556  assert(array[0] == 1) */\n      tag_48\n      jumpi\n      tag_49\n      tag_50\n      jump\t// in\n    tag_49:\n    tag_48:\n        /* \"Arrays.sol\":586:587  2 */\n      0x02\n        /* \"Arrays.sol\":574:579  array */\n      0x00\n        /* \"Arrays.sol\":580:581  1 */\n      0x01\n        /* \"Arrays.sol\":574:582  array[1] */\n      dup2\n      sload\n      dup2\n      lt\n      tag_51\n      jumpi\n      tag_52\n      tag_32\n      jump\t// in\n    tag_52:\n    tag_51:\n      swap1\n      0x00\n      mstore\n      keccak256(0x00, 0x20)\n      add\n      sload\n        /* \"Arrays.sol\":574:587  array[1] == 2 */\n      eq\n        /* \"Arrays.sol\":567:588  assert(array[1] == 2) */\n      tag_54\n      jumpi\n      tag_55\n      tag_50\n      jump\t// in\n    tag_55:\n    tag_54:\n        /* \"Arrays.sol\":618:619  4 */\n      0x04\n        /* \"Arrays.sol\":606:611  array */\n      0x00\n        /* \"Arrays.sol\":612:613  2 */\n      0x02\n        /* \"Arrays.sol\":606:614  array[2] */\n      dup2\n      sload\n      dup2\n      lt\n      tag_56\n      jumpi\n      tag_57\n      tag_32\n      jump\t// in\n    tag_57:\n    tag_56:\n      swap1\n      0x00\n      mstore\n      keccak256(0x00, 0x20)\n      add\n      sload\n        /* \"Arrays.sol\":606:619  array[2] == 4 */\n      eq\n        /* \"Arrays.sol\":599:620  assert(array[2] == 4) */\n      tag_59\n      jumpi\n      tag_60\n      tag_50\n      jump\t// in\n    tag_60:\n    tag_59:\n        /* \"Arrays.sol\":650:651  5 */\n      0x05\n        /* \"Arrays.sol\":638:643  array */\n      0x00\n        /* \"Arrays.sol\":644:645  3 */\n      0x03\n        /* \"Arrays.sol\":638:646  array[3] */\n      dup2\n      sload\n      dup2\n      lt\n      tag_61\n      jumpi\n      tag_62\n      tag_32\n      jump\t// in\n    tag_62:\n    tag_61:\n      swap1\n      0x00\n      mstore\n      keccak256(0x00, 0x20)\n      add\n      sload\n        /* \"Arrays.sol\":638:651  array[3] == 5 */\n      eq\n        /* \"Arrays.sol\":631:652  assert(array[3] == 5) */\n      tag_64\n      jumpi\n      tag_65\n      tag_50\n      jump\t// in\n    tag_65:\n    tag_64:\n        /* \"Arrays.sol\":688:689  4 */\n      0x04\n        /* \"Arrays.sol\":672:677  array */\n      0x00\n        /* \"Arrays.sol\":672:684  array.length */\n      dup1\n      sload\n      swap1\n      pop\n        /* \"Arrays.sol\":672:689  array.length == 4 */\n      eq\n        /* \"Arrays.sol\":665:690  assert(array.length == 4) */\n      tag_66\n      jumpi\n      tag_67\n      tag_50\n      jump\t// in\n    tag_67:\n    tag_66:\n        /* \"Arrays.sol\":444:698  function prueba() external {... */\n      jump\t// out\n    tag_43:\n      dup3\n      dup1\n      sload\n      dup3\n      dup3\n      sstore\n      swap1\n      0x00\n      mstore\n      keccak256(0x00, 0x20)\n      swap1\n      dup2\n      add\n      swap3\n      dup3\n      iszero\n      tag_68\n      jumpi\n      swap2\n      0x20\n      mul\n      dup3\n      add\n    tag_69:\n      dup3\n      dup2\n      gt\n      iszero\n      tag_70\n      jumpi\n      dup3\n      mload\n      dup3\n      swap1\n      0xff\n      and\n      swap1\n      sstore\n      swap2\n      0x20\n      add\n      swap2\n      swap1\n      0x01\n      add\n      swap1\n      jump(tag_69)\n    tag_70:\n    tag_68:\n      pop\n      swap1\n      pop\n      tag_71\n      swap2\n      swap1\n      tag_72\n      jump\t// in\n    tag_71:\n      pop\n      swap1\n      jump\t// out\n    tag_72:\n    tag_73:\n      dup1\n      dup3\n      gt\n      iszero\n      tag_74\n      jumpi\n      0x00\n      dup2\n      0x00\n      swap1\n      sstore\n      pop\n      0x01\n      add\n      jump(tag_73)\n    tag_74:\n      pop\n      swap1\n      jump\t// out\n        /* \"#utility.yul\":88:205   */\n    tag_76:\n        /* \"#utility.yul\":197:198   */\n      0x00\n        /* \"#utility.yul\":194:195   */\n      dup1\n        /* \"#utility.yul\":187:199   */\n      revert\n        /* \"#utility.yul\":334:411   */\n    tag_78:\n        /* \"#utility.yul\":371:378   */\n      0x00\n        /* \"#utility.yul\":400:405   */\n      dup2\n        /* \"#utility.yul\":389:405   */\n      swap1\n      pop\n        /* \"#utility.yul\":334:411   */\n      swap2\n      swap1\n      pop\n      jump\t// out\n        /* \"#utility.yul\":417:539   */\n    tag_79:\n        /* \"#utility.yul\":490:514   */\n      tag_92\n        /* \"#utility.yul\":508:513   */\n      dup2\n        /* \"#utility.yul\":490:514   */\n      tag_78\n      jump\t// in\n    tag_92:\n        /* \"#utility.yul\":483:488   */\n      dup2\n        /* \"#utility.yul\":480:515   */\n      eq\n        /* \"#utility.yul\":470:533   */\n      tag_93\n      jumpi\n        /* \"#utility.yul\":529:530   */\n      0x00\n        /* \"#utility.yul\":526:527   */\n      dup1\n        /* \"#utility.yul\":519:531   */\n      revert\n        /* \"#utility.yul\":470:533   */\n    tag_93:\n        /* \"#utility.yul\":417:539   */\n      pop\n      jump\t// out\n        /* \"#utility.yul\":545:684   */\n    tag_80:\n        /* \"#utility.yul\":591:596   */\n      0x00\n        /* \"#utility.yul\":629:635   */\n      dup2\n        /* \"#utility.yul\":616:636   */\n      calldataload\n        /* \"#utility.yul\":607:636   */\n      swap1\n      pop\n        /* \"#utility.yul\":645:678   */\n      tag_95\n        /* \"#utility.yul\":672:677   */\n      dup2\n        /* \"#utility.yul\":645:678   */\n      tag_79\n      jump\t// in\n    tag_95:\n        /* \"#utility.yul\":545:684   */\n      swap3\n      swap2\n      pop\n      pop\n      jump\t// out\n        /* \"#utility.yul\":690:1019   */\n    tag_8:\n        /* \"#utility.yul\":749:755   */\n      0x00\n        /* \"#utility.yul\":798:800   */\n      0x20\n        /* \"#utility.yul\":786:795   */\n      dup3\n        /* \"#utility.yul\":777:784   */\n      dup5\n        /* \"#utility.yul\":773:796   */\n      sub\n        /* \"#utility.yul\":769:801   */\n      slt\n        /* \"#utility.yul\":766:885   */\n      iszero\n      tag_97\n      jumpi\n        /* \"#utility.yul\":804:883   */\n      tag_98\n      tag_76\n      jump\t// in\n    tag_98:\n        /* \"#utility.yul\":766:885   */\n    tag_97:\n        /* \"#utility.yul\":924:925   */\n      0x00\n        /* \"#utility.yul\":949:1002   */\n      tag_99\n        /* \"#utility.yul\":994:1001   */\n      dup5\n        /* \"#utility.yul\":985:991   */\n      dup3\n        /* \"#utility.yul\":974:983   */\n      dup6\n        /* \"#utility.yul\":970:992   */\n      add\n        /* \"#utility.yul\":949:1002   */\n      tag_80\n      jump\t// in\n    tag_99:\n        /* \"#utility.yul\":939:1002   */\n      swap2\n      pop\n        /* \"#utility.yul\":895:1012   */\n      pop\n        /* \"#utility.yul\":690:1019   */\n      swap3\n      swap2\n      pop\n      pop\n      jump\t// out\n        /* \"#utility.yul\":1025:1143   */\n    tag_81:\n        /* \"#utility.yul\":1112:1136   */\n      tag_101\n        /* \"#utility.yul\":1130:1135   */\n      dup2\n        /* \"#utility.yul\":1112:1136   */\n      tag_78\n      jump\t// in\n    tag_101:\n        /* \"#utility.yul\":1107:1110   */\n      dup3\n        /* \"#utility.yul\":1100:1137   */\n      mstore\n        /* \"#utility.yul\":1025:1143   */\n      pop\n      pop\n      jump\t// out\n        /* \"#utility.yul\":1149:1371   */\n    tag_11:\n        /* \"#utility.yul\":1242:1246   */\n      0x00\n        /* \"#utility.yul\":1280:1282   */\n      0x20\n        /* \"#utility.yul\":1269:1278   */\n      dup3\n        /* \"#utility.yul\":1265:1283   */\n      add\n        /* \"#utility.yul\":1257:1283   */\n      swap1\n      pop\n        /* \"#utility.yul\":1293:1364   */\n      tag_103\n        /* \"#utility.yul\":1361:1362   */\n      0x00\n        /* \"#utility.yul\":1350:1359   */\n      dup4\n        /* \"#utility.yul\":1346:1363   */\n      add\n        /* \"#utility.yul\":1337:1343   */\n      dup5\n        /* \"#utility.yul\":1293:1364   */\n      tag_81\n      jump\t// in\n    tag_103:\n        /* \"#utility.yul\":1149:1371   */\n      swap3\n      swap2\n      pop\n      pop\n      jump\t// out\n        /* \"#utility.yul\":1377:1546   */\n    tag_82:\n        /* \"#utility.yul\":1461:1472   */\n      0x00\n        /* \"#utility.yul\":1495:1501   */\n      dup3\n        /* \"#utility.yul\":1490:1493   */\n      dup3\n        /* \"#utility.yul\":1483:1502   */\n      mstore\n        /* \"#utility.yul\":1535:1539   */\n      0x20\n        /* \"#utility.yul\":1530:1533   */\n      dup3\n        /* \"#utility.yul\":1526:1540   */\n      add\n        /* \"#utility.yul\":1511:1540   */\n      swap1\n      pop\n        /* \"#utility.yul\":1377:1546   */\n      swap3\n      swap2\n      pop\n      pop\n      jump\t// out\n        /* \"#utility.yul\":1552:1773   */\n    tag_83:\n        /* \"#utility.yul\":1692:1726   */\n      0x456c206172726179206e6f207469656e652074616e746f7320656c656d656e74\n        /* \"#utility.yul\":1688:1689   */\n      0x00\n        /* \"#utility.yul\":1680:1686   */\n      dup3\n        /* \"#utility.yul\":1676:1690   */\n      add\n        /* \"#utility.yul\":1669:1727   */\n      mstore\n        /* \"#utility.yul\":1761:1765   */\n      0x6f73000000000000000000000000000000000000000000000000000000000000\n        /* \"#utility.yul\":1756:1758   */\n      0x20\n        /* \"#utility.yul\":1748:1754   */\n      dup3\n        /* \"#utility.yul\":1744:1759   */\n      add\n        /* \"#utility.yul\":1737:1766   */\n      mstore\n        /* \"#utility.yul\":1552:1773   */\n      pop\n      jump\t// out\n        /* \"#utility.yul\":1779:2145   */\n    tag_84:\n        /* \"#utility.yul\":1921:1924   */\n      0x00\n        /* \"#utility.yul\":1942:2009   */\n      tag_107\n        /* \"#utility.yul\":2006:2008   */\n      0x22\n        /* \"#utility.yul\":2001:2004   */\n      dup4\n        /* \"#utility.yul\":1942:2009   */\n      tag_82\n      jump\t// in\n    tag_107:\n        /* \"#utility.yul\":1935:2009   */\n      swap2\n      pop\n        /* \"#utility.yul\":2018:2111   */\n      tag_108\n        /* \"#utility.yul\":2107:2110   */\n      dup3\n        /* \"#utility.yul\":2018:2111   */\n      tag_83\n      jump\t// in\n    tag_108:\n        /* \"#utility.yul\":2136:2138   */\n      0x40\n        /* \"#utility.yul\":2131:2134   */\n      dup3\n        /* \"#utility.yul\":2127:2139   */\n      add\n        /* \"#utility.yul\":2120:2139   */\n      swap1\n      pop\n        /* \"#utility.yul\":1779:2145   */\n      swap2\n      swap1\n      pop\n      jump\t// out\n        /* \"#utility.yul\":2151:2570   */\n    tag_22:\n        /* \"#utility.yul\":2317:2321   */\n      0x00\n        /* \"#utility.yul\":2355:2357   */\n      0x20\n        /* \"#utility.yul\":2344:2353   */\n      dup3\n        /* \"#utility.yul\":2340:2358   */\n      add\n        /* \"#utility.yul\":2332:2358   */\n      swap1\n      pop\n        /* \"#utility.yul\":2404:2413   */\n      dup2\n        /* \"#utility.yul\":2398:2402   */\n      dup2\n        /* \"#utility.yul\":2394:2414   */\n      sub\n        /* \"#utility.yul\":2390:2391   */\n      0x00\n        /* \"#utility.yul\":2379:2388   */\n      dup4\n        /* \"#utility.yul\":2375:2392   */\n      add\n        /* \"#utility.yul\":2368:2415   */\n      mstore\n        /* \"#utility.yul\":2432:2563   */\n      tag_110\n        /* \"#utility.yul\":2558:2562   */\n      dup2\n        /* \"#utility.yul\":2432:2563   */\n      tag_84\n      jump\t// in\n    tag_110:\n        /* \"#utility.yul\":2424:2563   */\n      swap1\n      pop\n        /* \"#utility.yul\":2151:2570   */\n      swap2\n      swap1\n      pop\n      jump\t// out\n        /* \"#utility.yul\":2576:2756   */\n    tag_85:\n        /* \"#utility.yul\":2624:2701   */\n      0x4e487b7100000000000000000000000000000000000000000000000000000000\n        /* \"#utility.yul\":2621:2622   */\n      0x00\n        /* \"#utility.yul\":2614:2702   */\n      mstore\n        /* \"#utility.yul\":2721:2725   */\n      0x11\n        /* \"#utility.yul\":2718:2719   */\n      0x04\n        /* \"#utility.yul\":2711:2726   */\n      mstore\n        /* \"#utility.yul\":2745:2749   */\n      0x24\n        /* \"#utility.yul\":2742:2743   */\n      0x00\n        /* \"#utility.yul\":2735:2750   */\n      revert\n        /* \"#utility.yul\":2762:2956   */\n    tag_27:\n        /* \"#utility.yul\":2802:2806   */\n      0x00\n        /* \"#utility.yul\":2822:2842   */\n      tag_113\n        /* \"#utility.yul\":2840:2841   */\n      dup3\n        /* \"#utility.yul\":2822:2842   */\n      tag_78\n      jump\t// in\n    tag_113:\n        /* \"#utility.yul\":2817:2842   */\n      swap2\n      pop\n        /* \"#utility.yul\":2856:2876   */\n      tag_114\n        /* \"#utility.yul\":2874:2875   */\n      dup4\n        /* \"#utility.yul\":2856:2876   */\n      tag_78\n      jump\t// in\n    tag_114:\n        /* \"#utility.yul\":2851:2876   */\n      swap3\n      pop\n        /* \"#utility.yul\":2900:2901   */\n      dup3\n        /* \"#utility.yul\":2897:2898   */\n      dup3\n        /* \"#utility.yul\":2893:2902   */\n      sub\n        /* \"#utility.yul\":2885:2902   */\n      swap1\n      pop\n        /* \"#utility.yul\":2924:2925   */\n      dup2\n        /* \"#utility.yul\":2918:2922   */\n      dup2\n        /* \"#utility.yul\":2915:2926   */\n      gt\n        /* \"#utility.yul\":2912:2949   */\n      iszero\n      tag_115\n      jumpi\n        /* \"#utility.yul\":2929:2947   */\n      tag_116\n      tag_85\n      jump\t// in\n    tag_116:\n        /* \"#utility.yul\":2912:2949   */\n    tag_115:\n        /* \"#utility.yul\":2762:2956   */\n      swap3\n      swap2\n      pop\n      pop\n      jump\t// out\n        /* \"#utility.yul\":2962:3153   */\n    tag_29:\n        /* \"#utility.yul\":3002:3005   */\n      0x00\n        /* \"#utility.yul\":3021:3041   */\n      tag_118\n        /* \"#utility.yul\":3039:3040   */\n      dup3\n        /* \"#utility.yul\":3021:3041   */\n      tag_78\n      jump\t// in\n    tag_118:\n        /* \"#utility.yul\":3016:3041   */\n      swap2\n      pop\n        /* \"#utility.yul\":3055:3075   */\n      tag_119\n        /* \"#utility.yul\":3073:3074   */\n      dup4\n        /* \"#utility.yul\":3055:3075   */\n      tag_78\n      jump\t// in\n    tag_119:\n        /* \"#utility.yul\":3050:3075   */\n      swap3\n      pop\n        /* \"#utility.yul\":3098:3099   */\n      dup3\n        /* \"#utility.yul\":3095:3096   */\n      dup3\n        /* \"#utility.yul\":3091:3100   */\n      add\n        /* \"#utility.yul\":3084:3100   */\n      swap1\n      pop\n        /* \"#utility.yul\":3119:3122   */\n      dup1\n        /* \"#utility.yul\":3116:3117   */\n      dup3\n        /* \"#utility.yul\":3113:3123   */\n      gt\n        /* \"#utility.yul\":3110:3146   */\n      iszero\n      tag_120\n      jumpi\n        /* \"#utility.yul\":3126:3144   */\n      tag_121\n      tag_85\n      jump\t// in\n    tag_121:\n        /* \"#utility.yul\":3110:3146   */\n    tag_120:\n        /* \"#utility.yul\":2962:3153   */\n      swap3\n      swap2\n      pop\n      pop\n      jump\t// out\n        /* \"#utility.yul\":3159:3339   */\n    tag_32:\n        /* \"#utility.yul\":3207:3284   */\n      0x4e487b7100000000000000000000000000000000000000000000000000000000\n        /* \"#utility.yul\":3204:3205   */\n      0x00\n        /* \"#utility.yul\":3197:3285   */\n      mstore\n        /* \"#utility.yul\":3304:3308   */\n      0x32\n        /* \"#utility.yul\":3301:3302   */\n      0x04\n        /* \"#utility.yul\":3294:3309   */\n      mstore\n        /* \"#utility.yul\":3328:3332   */\n      0x24\n        /* \"#utility.yul\":3325:3326   */\n      0x00\n        /* \"#utility.yul\":3318:3333   */\n      revert\n        /* \"#utility.yul\":3345:3525   */\n    tag_39:\n        /* \"#utility.yul\":3393:3470   */\n      0x4e487b7100000000000000000000000000000000000000000000000000000000\n        /* \"#utility.yul\":3390:3391   */\n      0x00\n        /* \"#utility.yul\":3383:3471   */\n      mstore\n        /* \"#utility.yul\":3490:3494   */\n      0x31\n        /* \"#utility.yul\":3487:3488   */\n      0x04\n        /* \"#utility.yul\":3480:3495   */\n      mstore\n        /* \"#utility.yul\":3514:3518   */\n      0x24\n        /* \"#utility.yul\":3511:3512   */\n      0x00\n        /* \"#utility.yul\":3504:3519   */\n      revert\n        /* \"#utility.yul\":3531:3711   */\n    tag_50:\n        /* \"#utility.yul\":3579:3656   */\n      0x4e487b7100000000000000000000000000000000000000000000000000000000\n        /* \"#utility.yul\":3576:3577   */\n      0x00\n        /* \"#utility.yul\":3569:3657   */\n      mstore\n        /* \"#utility.yul\":3676:3680   */\n      0x01\n        /* \"#utility.yul\":3673:3674   */\n      0x04\n        /* \"#utility.yul\":3666:3681   */\n      mstore\n        /* \"#utility.yul\":3700:3704   */\n      0x24\n        /* \"#utility.yul\":3697:3698   */\n      0x00\n        /* \"#utility.yul\":3690:3705   */\n      revert\n\n    auxdata: 0xa2646970667358221220a5bc3adf23f341b23a7bffac5aabf27325acd2b0c5f284ba6a97bc504b1391ae64736f6c634300081a0033\n}\n",
				"bytecode": {
					"linkReferences": {},
					"object": "6080604052348015600e575f80fd5b506105998061001c5f395ff3fe608060405234801561000f575f80fd5b506004361061003f575f3560e01c806338d94193146100435780634cc82215146100735780637cb5946d1461008f575b5f80fd5b61005d60048036038101906100589190610358565b610099565b60405161006a9190610392565b60405180910390f35b61008d60048036038101906100889190610358565b6100b8565b005b610097610197565b005b5f81815481106100a7575f80fd5b905f5260205f20015f915090505481565b5f8054905081106100fe576040517f08c379a00000000000000000000000000000000000000000000000000000000081526004016100f59061042b565b60405180910390fd5b5f8190505b60015f805490506101149190610476565b81101561016f575f60018261012991906104a9565b8154811061013a576101396104dc565b5b905f5260205f2001545f8281548110610156576101556104dc565b5b905f5260205f2001819055508080600101915050610103565b505f80548061018157610180610509565b5b600190038181905f5260205f20015f9055905550565b6040518060a00160405280600160ff168152602001600260ff168152602001600360ff168152602001600460ff168152602001600560ff168152505f9060056101e19291906102b6565b506101ec60026100b8565b60015f8081548110610201576102006104dc565b5b905f5260205f2001541461021857610217610536565b5b60025f60018154811061022e5761022d6104dc565b5b905f5260205f2001541461024557610244610536565b5b60045f60028154811061025b5761025a6104dc565b5b905f5260205f2001541461027257610271610536565b5b60055f600381548110610288576102876104dc565b5b905f5260205f2001541461029f5761029e610536565b5b60045f80549050146102b4576102b3610536565b5b565b828054828255905f5260205f209081019282156102f5579160200282015b828111156102f4578251829060ff169055916020019190600101906102d4565b5b5090506103029190610306565b5090565b5b8082111561031d575f815f905550600101610307565b5090565b5f80fd5b5f819050919050565b61033781610325565b8114610341575f80fd5b50565b5f813590506103528161032e565b92915050565b5f6020828403121561036d5761036c610321565b5b5f61037a84828501610344565b91505092915050565b61038c81610325565b82525050565b5f6020820190506103a55f830184610383565b92915050565b5f82825260208201905092915050565b7f456c206172726179206e6f207469656e652074616e746f7320656c656d656e745f8201527f6f73000000000000000000000000000000000000000000000000000000000000602082015250565b5f6104156022836103ab565b9150610420826103bb565b604082019050919050565b5f6020820190508181035f83015261044281610409565b9050919050565b7f4e487b71000000000000000000000000000000000000000000000000000000005f52601160045260245ffd5b5f61048082610325565b915061048b83610325565b92508282039050818111156104a3576104a2610449565b5b92915050565b5f6104b382610325565b91506104be83610325565b92508282019050808211156104d6576104d5610449565b5b92915050565b7f4e487b71000000000000000000000000000000000000000000000000000000005f52603260045260245ffd5b7f4e487b71000000000000000000000000000000000000000000000000000000005f52603160045260245ffd5b7f4e487b71000000000000000000000000000000000000000000000000000000005f52600160045260245ffdfea2646970667358221220a5bc3adf23f341b23a7bffac5aabf27325acd2b0c5f284ba6a97bc504b1391ae64736f6c634300081a0033",
					"opcodes": "PUSH1 0x80 PUSH1 0x40 MSTORE CALLVALUE DUP1 ISZERO PUSH1 0xE JUMPI PUSH0 DUP1 REVERT JUMPDEST POP PUSH2 0x599 DUP1 PUSH2 0x1C PUSH0 CODECOPY PUSH0 RETURN INVALID PUSH1 0x80 PUSH1 0x40 MSTORE CALLVALUE DUP1 ISZERO PUSH2 0xF JUMPI PUSH0 DUP1 REVERT JUMPDEST POP PUSH1 0x4 CALLDATASIZE LT PUSH2 0x3F JUMPI PUSH0 CALLDATALOAD PUSH1 0xE0 SHR DUP1 PUSH4 0x38D94193 EQ PUSH2 0x43 JUMPI DUP1 PUSH4 0x4CC82215 EQ PUSH2 0x73 JUMPI DUP1 PUSH4 0x7CB5946D EQ PUSH2 0x8F JUMPI JUMPDEST PUSH0 DUP1 REVERT JUMPDEST PUSH2 0x5D PUSH1 0x4 DUP1 CALLDATASIZE SUB DUP2 ADD SWAP1 PUSH2 0x58 SWAP2 SWAP1 PUSH2 0x358 JUMP JUMPDEST PUSH2 0x99 JUMP JUMPDEST PUSH1 0x40 MLOAD PUSH2 0x6A SWAP2 SWAP1 PUSH2 0x392 JUMP JUMPDEST PUSH1 0x40 MLOAD DUP1 SWAP2 SUB SWAP1 RETURN JUMPDEST PUSH2 0x8D PUSH1 0x4 DUP1 CALLDATASIZE SUB DUP2 ADD SWAP1 PUSH2 0x88 SWAP2 SWAP1 PUSH2 0x358 JUMP JUMPDEST PUSH2 0xB8 JUMP JUMPDEST STOP JUMPDEST PUSH2 0x97 PUSH2 0x197 JUMP JUMPDEST STOP JUMPDEST PUSH0 DUP2 DUP2 SLOAD DUP2 LT PUSH2 0xA7 JUMPI PUSH0 DUP1 REVERT JUMPDEST SWAP1 PUSH0 MSTORE PUSH1 0x20 PUSH0 KECCAK256 ADD PUSH0 SWAP2 POP SWAP1 POP SLOAD DUP2 JUMP JUMPDEST PUSH0 DUP1 SLOAD SWAP1 POP DUP2 LT PUSH2 0xFE JUMPI PUSH1 0x40 MLOAD PUSH32 0x8C379A000000000000000000000000000000000000000000000000000000000 DUP2 MSTORE PUSH1 0x4 ADD PUSH2 0xF5 SWAP1 PUSH2 0x42B JUMP JUMPDEST PUSH1 0x40 MLOAD DUP1 SWAP2 SUB SWAP1 REVERT JUMPDEST PUSH0 DUP2 SWAP1 POP JUMPDEST PUSH1 0x1 PUSH0 DUP1 SLOAD SWAP1 POP PUSH2 0x114 SWAP2 SWAP1 PUSH2 0x476 JUMP JUMPDEST DUP2 LT ISZERO PUSH2 0x16F JUMPI PUSH0 PUSH1 0x1 DUP3 PUSH2 0x129 SWAP2 SWAP1 PUSH2 0x4A9 JUMP JUMPDEST DUP2 SLOAD DUP2 LT PUSH2 0x13A JUMPI PUSH2 0x139 PUSH2 0x4DC JUMP JUMPDEST JUMPDEST SWAP1 PUSH0 MSTORE PUSH1 0x20 PUSH0 KECCAK256 ADD SLOAD PUSH0 DUP3 DUP2 SLOAD DUP2 LT PUSH2 0x156 JUMPI PUSH2 0x155 PUSH2 0x4DC JUMP JUMPDEST JUMPDEST SWAP1 PUSH0 MSTORE PUSH1 0x20 PUSH0 KECCAK256 ADD DUP2 SWAP1 SSTORE POP DUP1 DUP1 PUSH1 0x1 ADD SWAP2 POP POP PUSH2 0x103 JUMP JUMPDEST POP PUSH0 DUP1 SLOAD DUP1 PUSH2 0x181 JUMPI PUSH2 0x180 PUSH2 0x509 JUMP JUMPDEST JUMPDEST PUSH1 0x1 SWAP1 SUB DUP2 DUP2 SWAP1 PUSH0 MSTORE PUSH1 0x20 PUSH0 KECCAK256 ADD PUSH0 SWAP1 SSTORE SWAP1 SSTORE POP JUMP JUMPDEST PUSH1 0x40 MLOAD DUP1 PUSH1 0xA0 ADD PUSH1 0x40 MSTORE DUP1 PUSH1 0x1 PUSH1 0xFF AND DUP2 MSTORE PUSH1 0x20 ADD PUSH1 0x2 PUSH1 0xFF AND DUP2 MSTORE PUSH1 0x20 ADD PUSH1 0x3 PUSH1 0xFF AND DUP2 MSTORE PUSH1 0x20 ADD PUSH1 0x4 PUSH1 0xFF AND DUP2 MSTORE PUSH1 0x20 ADD PUSH1 0x5 PUSH1 0xFF AND DUP2 MSTORE POP PUSH0 SWAP1 PUSH1 0x5 PUSH2 0x1E1 SWAP3 SWAP2 SWAP1 PUSH2 0x2B6 JUMP JUMPDEST POP PUSH2 0x1EC PUSH1 0x2 PUSH2 0xB8 JUMP JUMPDEST PUSH1 0x1 PUSH0 DUP1 DUP2 SLOAD DUP2 LT PUSH2 0x201 JUMPI PUSH2 0x200 PUSH2 0x4DC JUMP JUMPDEST JUMPDEST SWAP1 PUSH0 MSTORE PUSH1 0x20 PUSH0 KECCAK256 ADD SLOAD EQ PUSH2 0x218 JUMPI PUSH2 0x217 PUSH2 0x536 JUMP JUMPDEST JUMPDEST PUSH1 0x2 PUSH0 PUSH1 0x1 DUP2 SLOAD DUP2 LT PUSH2 0x22E JUMPI PUSH2 0x22D PUSH2 0x4DC JUMP JUMPDEST JUMPDEST SWAP1 PUSH0 MSTORE PUSH1 0x20 PUSH0 KECCAK256 ADD SLOAD EQ PUSH2 0x245 JUMPI PUSH2 0x244 PUSH2 0x536 JUMP JUMPDEST JUMPDEST PUSH1 0x4 PUSH0 PUSH1 0x2 DUP2 SLOAD DUP2 LT PUSH2 0x25B JUMPI PUSH2 0x25A PUSH2 0x4DC JUMP JUMPDEST JUMPDEST SWAP1 PUSH0 MSTORE PUSH1 0x20 PUSH0 KECCAK256 ADD SLOAD EQ PUSH2 0x272 JUMPI PUSH2 0x271 PUSH2 0x536 JUMP JUMPDEST JUMPDEST PUSH1 0x5 PUSH0 PUSH1 0x3 DUP2 SLOAD DUP2 LT PUSH2 0x288 JUMPI PUSH2 0x287 PUSH2 0x4DC JUMP JUMPDEST JUMPDEST SWAP1 PUSH0 MSTORE PUSH1 0x20 PUSH0 KECCAK256 ADD SLOAD EQ PUSH2 0x29F JUMPI PUSH2 0x29E PUSH2 0x536 JUMP JUMPDEST JUMPDEST PUSH1 0x4 PUSH0 DUP1 SLOAD SWAP1 POP EQ PUSH2 0x2B4 JUMPI PUSH2 0x2B3 PUSH2 0x536 JUMP JUMPDEST JUMPDEST JUMP JUMPDEST DUP3 DUP1 SLOAD DUP3 DUP3 SSTORE SWAP1 PUSH0 MSTORE PUSH1 0x20 PUSH0 KECCAK256 SWAP1 DUP2 ADD SWAP3 DUP3 ISZERO PUSH2 0x2F5 JUMPI SWAP2 PUSH1 0x20 MUL DUP3 ADD JUMPDEST DUP3 DUP2 GT ISZERO PUSH2 0x2F4 JUMPI DUP3 MLOAD DUP3 SWAP1 PUSH1 0xFF AND SWAP1 SSTORE SWAP2 PUSH1 0x20 ADD SWAP2 SWAP1 PUSH1 0x1 ADD SWAP1 PUSH2 0x2D4 JUMP JUMPDEST JUMPDEST POP SWAP1 POP PUSH2 0x302 SWAP2 SWAP1 PUSH2 0x306 JUMP JUMPDEST POP SWAP1 JUMP JUMPDEST JUMPDEST DUP1 DUP3 GT ISZERO PUSH2 0x31D JUMPI PUSH0 DUP2 PUSH0 SWAP1 SSTORE POP PUSH1 0x1 ADD PUSH2 0x307 JUMP JUMPDEST POP SWAP1 JUMP JUMPDEST PUSH0 DUP1 REVERT JUMPDEST PUSH0 DUP2 SWAP1 POP SWAP2 SWAP1 POP JUMP JUMPDEST PUSH2 0x337 DUP2 PUSH2 0x325 JUMP JUMPDEST DUP2 EQ PUSH2 0x341 JUMPI PUSH0 DUP1 REVERT JUMPDEST POP JUMP JUMPDEST PUSH0 DUP2 CALLDATALOAD SWAP1 POP PUSH2 0x352 DUP2 PUSH2 0x32E JUMP JUMPDEST SWAP3 SWAP2 POP POP JUMP JUMPDEST PUSH0 PUSH1 0x20 DUP3 DUP5 SUB SLT ISZERO PUSH2 0x36D JUMPI PUSH2 0x36C PUSH2 0x321 JUMP JUMPDEST JUMPDEST PUSH0 PUSH2 0x37A DUP5 DUP3 DUP6 ADD PUSH2 0x344 JUMP JUMPDEST SWAP2 POP POP SWAP3 SWAP2 POP POP JUMP JUMPDEST PUSH2 0x38C DUP2 PUSH2 0x325 JUMP JUMPDEST DUP3 MSTORE POP POP JUMP JUMPDEST PUSH0 PUSH1 0x20 DUP3 ADD SWAP1 POP PUSH2 0x3A5 PUSH0 DUP4 ADD DUP5 PUSH2 0x383 JUMP JUMPDEST SWAP3 SWAP2 POP POP JUMP JUMPDEST PUSH0 DUP3 DUP3 MSTORE PUSH1 0x20 DUP3 ADD SWAP1 POP SWAP3 SWAP2 POP POP JUMP JUMPDEST PUSH32 0x456C206172726179206E6F207469656E652074616E746F7320656C656D656E74 PUSH0 DUP3 ADD MSTORE PUSH32 0x6F73000000000000000000000000000000000000000000000000000000000000 PUSH1 0x20 DUP3 ADD MSTORE POP JUMP JUMPDEST PUSH0 PUSH2 0x415 PUSH1 0x22 DUP4 PUSH2 0x3AB JUMP JUMPDEST SWAP2 POP PUSH2 0x420 DUP3 PUSH2 0x3BB JUMP JUMPDEST PUSH1 0x40 DUP3 ADD SWAP1 POP SWAP2 SWAP1 POP JUMP JUMPDEST PUSH0 PUSH1 0x20 DUP3 ADD SWAP1 POP DUP2 DUP2 SUB PUSH0 DUP4 ADD MSTORE PUSH2 0x442 DUP2 PUSH2 0x409 JUMP JUMPDEST SWAP1 POP SWAP2 SWAP1 POP JUMP JUMPDEST PUSH32 0x4E487B7100000000000000000000000000000000000000000000000000000000 PUSH0 MSTORE PUSH1 0x11 PUSH1 0x4 MSTORE PUSH1 0x24 PUSH0 REVERT JUMPDEST PUSH0 PUSH2 0x480 DUP3 PUSH2 0x325 JUMP JUMPDEST SWAP2 POP PUSH2 0x48B DUP4 PUSH2 0x325 JUMP JUMPDEST SWAP3 POP DUP3 DUP3 SUB SWAP1 POP DUP2 DUP2 GT ISZERO PUSH2 0x4A3 JUMPI PUSH2 0x4A2 PUSH2 0x449 JUMP JUMPDEST JUMPDEST SWAP3 SWAP2 POP POP JUMP JUMPDEST PUSH0 PUSH2 0x4B3 DUP3 PUSH2 0x325 JUMP JUMPDEST SWAP2 POP PUSH2 0x4BE DUP4 PUSH2 0x325 JUMP JUMPDEST SWAP3 POP DUP3 DUP3 ADD SWAP1 POP DUP1 DUP3 GT ISZERO PUSH2 0x4D6 JUMPI PUSH2 0x4D5 PUSH2 0x449 JUMP JUMPDEST JUMPDEST SWAP3 SWAP2 POP POP JUMP JUMPDEST PUSH32 0x4E487B7100000000000000000000000000000000000000000000000000000000 PUSH0 MSTORE PUSH1 0x32 PUSH1 0x4 MSTORE PUSH1 0x24 PUSH0 REVERT JUMPDEST PUSH32 0x4E487B7100000000000000000000000000000000000000000000000000000000 PUSH0 MSTORE PUSH1 0x31 PUSH1 0x4 MSTORE PUSH1 0x24 PUSH0 REVERT JUMPDEST PUSH32 0x4E487B7100000000000000000000000000000000000000000000000000000000 PUSH0 MSTORE PUSH1 0x1 PUSH1 0x4 MSTORE PUSH1 0x24 PUSH0 REVERT INVALID LOG2 PUSH5 0x6970667358 0x22 SLT KECCAK256 0xA5 0xBC GASPRICE 0xDF 0x23 RETURN COINBASE 0xB2 GASPRICE PUSH28 0xFFAC5AABF27325ACD2B0C5F284BA6A97BC504B1391AE64736F6C6343 STOP ADDMOD BYTE STOP CALLER "
				},
				"gasEstimates": {
					"creation": {
						"codeDepositCost": "286600",
						"executionCost": "322",
						"totalCost": "286922"
					},
					"external": {
						"array(uint256)": "infinite",
						"prueba()": "infinite",
						"remove(uint256)": "infinite"
					}
				},
				"methodIdentifiers": {
					"array(uint256)": "38d94193",
					"prueba()": "7cb5946d",
					"remove(uint256)": "4cc82215"
				}
			},
			"storageLayout": {
				"storage": [
					{
						"astId": 4,
						"contract": "Arrays.sol:Arrays",
						"label": "array",
						"offset": 0,
						"slot": "0",
						"type": "t_array(t_uint256)dyn_storage"
					}
				],
				"types": {
					"t_array(t_uint256)dyn_storage": {
						"base": "t_uint256",
						"encoding": "dynamic_array",
						"label": "uint256[]",
						"numberOfBytes": "32"
					},
					"t_uint256": {
						"encoding": "inplace",
						"label": "uint256",
						"numberOfBytes": "32"
					}
				}
			},
			"userdoc": {
				"kind": "user",
				"methods": {},
				"version": 1
			}
		}
	}
}