{
	"ControlAcceso.sol": {
		"ControlAcceso": {
			"abi": [
				{
					"inputs": [],
					"stateMutability": "nonpayable",
					"type": "constructor"
				},
				{
					"anonymous": false,
					"inputs": [
						{
							"indexed": true,
							"internalType": "bytes32",
							"name": "role",
							"type": "bytes32"
						},
						{
							"indexed": true,
							"internalType": "address",
							"name": "account",
							"type": "address"
						}
					],
					"name": "RoleAssigned",
					"type": "event"
				},
				{
					"anonymous": false,
					"inputs": [
						{
							"indexed": true,
							"internalType": "bytes32",
							"name": "role",
							"type": "bytes32"
						},
						{
							"indexed": true,
							"internalType": "address",
							"name": "account",
							"type": "address"
						}
					],
					"name": "RoleRemoved",
					"type": "event"
				},
				{
					"inputs": [
						{
							"internalType": "bytes32",
							"name": "_role",
							"type": "bytes32"
						},
						{
							"internalType": "address",
							"name": "_account",
							"type": "address"
						}
					],
					"name": "AssignRole",
					"outputs": [],
					"stateMutability": "nonpayable",
					"type": "function"
				},
				{
					"inputs": [
						{
							"internalType": "bytes32",
							"name": "_role",
							"type": "bytes32"
						},
						{
							"internalType": "address",
							"name": "_account",
							"type": "address"
						}
					],
					"name": "RemoveRole",
					"outputs": [],
					"stateMutability": "nonpayable",
					"type": "function"
				},
				{
					"inputs": [
						{
							"internalType": "bytes32",
							"name": "",
							"type": "bytes32"
						},
						{
							"internalType": "address",
							"name": "",
							"type": "address"
						}
					],
					"name": "roles",
					"outputs": [
						{
							"internalType": "bool",
							"name": "",
							"type": "bool"
						}
					],
					"stateMutability": "view",
					"type": "function"
				}
			],
			"devdoc": {
				"kind": "dev",
				"methods": {},
				"version": 1
			},
			"evm": {
				"assembly": "    /* \"ControlAcceso.sol\":70:1510  contract ControlAcceso{... */\n  mstore(0x40, 0x80)\n    /* \"ControlAcceso.sol\":769:831  constructor(){... */\n  callvalue\n  dup1\n  iszero\n  tag_1\n  jumpi\n  0x00\n  dup1\n  revert\ntag_1:\n  pop\n    /* \"ControlAcceso.sol\":793:823  _assignRole(ADMIN, msg.sender) */\n  tag_4\n    /* \"ControlAcceso.sol\":447:472  abi.encodePacked(\"ADMIN\") */\n  add(0x20, mload(0x40))\n  tag_5\n  swap1\n  tag_6\n  jump\t// in\ntag_5:\n  mload(0x40)\n  0x20\n  dup2\n  dup4\n  sub\n  sub\n  dup2\n  mstore\n  swap1\n  0x40\n  mstore\n    /* \"ControlAcceso.sol\":437:473  keccak256(abi.encodePacked(\"ADMIN\")) */\n  dup1\n  mload\n  swap1\n  0x20\n  add\n  keccak256\n    /* \"ControlAcceso.sol\":812:822  msg.sender */\n  caller\n    /* \"ControlAcceso.sol\":793:804  _assignRole */\n  shl(0x20, tag_7)\n    /* \"ControlAcceso.sol\":793:823  _assignRole(ADMIN, msg.sender) */\n  0x20\n  shr\n  jump\t// in\ntag_4:\n    /* \"ControlAcceso.sol\":70:1510  contract ControlAcceso{... */\n  jump(tag_8)\n    /* \"ControlAcceso.sol\":841:997  function _assignRole(bytes32 _role, address _account) internal {... */\ntag_7:\n    /* \"ControlAcceso.sol\":940:944  true */\n  0x01\n    /* \"ControlAcceso.sol\":915:920  roles */\n  0x00\n    /* \"ControlAcceso.sol\":915:927  roles[_role] */\n  dup1\n    /* \"ControlAcceso.sol\":921:926  _role */\n  dup5\n    /* \"ControlAcceso.sol\":915:927  roles[_role] */\n  dup2\n  mstore\n  0x20\n  add\n  swap1\n  dup2\n  mstore\n  0x20\n  add\n  0x00\n  keccak256\n    /* \"ControlAcceso.sol\":915:937  roles[_role][_account] */\n  0x00\n    /* \"ControlAcceso.sol\":928:936  _account */\n  dup4\n    /* \"ControlAcceso.sol\":915:937  roles[_role][_account] */\n  0xffffffffffffffffffffffffffffffffffffffff\n  and\n  0xffffffffffffffffffffffffffffffffffffffff\n  and\n  dup2\n  mstore\n  0x20\n  add\n  swap1\n  dup2\n  mstore\n  0x20\n  add\n  0x00\n  keccak256\n  0x00\n    /* \"ControlAcceso.sol\":915:944  roles[_role][_account] = true */\n  0x0100\n  exp\n  dup2\n  sload\n  dup2\n  0xff\n  mul\n  not\n  and\n  swap1\n  dup4\n  iszero\n  iszero\n  mul\n  or\n  swap1\n  sstore\n  pop\n    /* \"ControlAcceso.sol\":980:988  _account */\n  dup1\n    /* \"ControlAcceso.sol\":960:989  RoleAssigned(_role, _account) */\n  0xffffffffffffffffffffffffffffffffffffffff\n  and\n    /* \"ControlAcceso.sol\":973:978  _role */\n  dup3\n    /* \"ControlAcceso.sol\":960:989  RoleAssigned(_role, _account) */\n  0x8122312829fb608b8d31c14e44cba6826748abddc350818605bfc69eb7ff3847\n  mload(0x40)\n  mload(0x40)\n  dup1\n  swap2\n  sub\n  swap1\n  log3\n    /* \"ControlAcceso.sol\":841:997  function _assignRole(bytes32 _role, address _account) internal {... */\n  pop\n  pop\n  jump\t// out\n    /* \"#utility.yul\":7:155   */\ntag_10:\n    /* \"#utility.yul\":109:120   */\n  0x00\n    /* \"#utility.yul\":146:149   */\n  dup2\n    /* \"#utility.yul\":131:149   */\n  swap1\n  pop\n    /* \"#utility.yul\":7:155   */\n  swap3\n  swap2\n  pop\n  pop\n  jump\t// out\n    /* \"#utility.yul\":161:316   */\ntag_11:\n    /* \"#utility.yul\":301:308   */\n  0x41444d494e000000000000000000000000000000000000000000000000000000\n    /* \"#utility.yul\":297:298   */\n  0x00\n    /* \"#utility.yul\":289:295   */\n  dup3\n    /* \"#utility.yul\":285:299   */\n  add\n    /* \"#utility.yul\":278:309   */\n  mstore\n    /* \"#utility.yul\":161:316   */\n  pop\n  jump\t// out\n    /* \"#utility.yul\":322:722   */\ntag_12:\n    /* \"#utility.yul\":482:485   */\n  0x00\n    /* \"#utility.yul\":503:587   */\n  tag_17\n    /* \"#utility.yul\":585:586   */\n  0x05\n    /* \"#utility.yul\":580:583   */\n  dup4\n    /* \"#utility.yul\":503:587   */\n  tag_10\n  jump\t// in\ntag_17:\n    /* \"#utility.yul\":496:587   */\n  swap2\n  pop\n    /* \"#utility.yul\":596:689   */\n  tag_18\n    /* \"#utility.yul\":685:688   */\n  dup3\n    /* \"#utility.yul\":596:689   */\n  tag_11\n  jump\t// in\ntag_18:\n    /* \"#utility.yul\":714:715   */\n  0x05\n    /* \"#utility.yul\":709:712   */\n  dup3\n    /* \"#utility.yul\":705:716   */\n  add\n    /* \"#utility.yul\":698:716   */\n  swap1\n  pop\n    /* \"#utility.yul\":322:722   */\n  swap2\n  swap1\n  pop\n  jump\t// out\n    /* \"#utility.yul\":728:1109   */\ntag_6:\n    /* \"#utility.yul\":913:916   */\n  0x00\n    /* \"#utility.yul\":935:1083   */\n  tag_20\n    /* \"#utility.yul\":1079:1082   */\n  dup3\n    /* \"#utility.yul\":935:1083   */\n  tag_12\n  jump\t// in\ntag_20:\n    /* \"#utility.yul\":928:1083   */\n  swap2\n  pop\n    /* \"#utility.yul\":1100:1103   */\n  dup2\n    /* \"#utility.yul\":1093:1103   */\n  swap1\n  pop\n    /* \"#utility.yul\":728:1109   */\n  swap2\n  swap1\n  pop\n  jump\t// out\n    /* \"ControlAcceso.sol\":70:1510  contract ControlAcceso{... */\ntag_8:\n  dataSize(sub_0)\n  dup1\n  dataOffset(sub_0)\n  0x00\n  codecopy\n  0x00\n  return\nstop\n\nsub_0: assembly {\n        /* \"ControlAcceso.sol\":70:1510  contract ControlAcceso{... */\n      mstore(0x40, 0x80)\n      callvalue\n      dup1\n      iszero\n      tag_1\n      jumpi\n      0x00\n      dup1\n      revert\n    tag_1:\n      pop\n      jumpi(tag_2, lt(calldatasize, 0x04))\n      shr(0xe0, calldataload(0x00))\n      dup1\n      0x01627bb4\n      eq\n      tag_3\n      jumpi\n      dup1\n      0x361ed204\n      eq\n      tag_4\n      jumpi\n      dup1\n      0xf8fc08b9\n      eq\n      tag_5\n      jumpi\n    tag_2:\n      0x00\n      dup1\n      revert\n        /* \"ControlAcceso.sol\":1209:1334  function AssignRole(bytes32 _role, address _account) external onlyAdmin(ADMIN){... */\n    tag_3:\n      tag_6\n      0x04\n      dup1\n      calldatasize\n      sub\n      dup2\n      add\n      swap1\n      tag_7\n      swap2\n      swap1\n      tag_8\n      jump\t// in\n    tag_7:\n      tag_9\n      jump\t// in\n    tag_6:\n      stop\n        /* \"ControlAcceso.sol\":1382:1507  function RemoveRole(bytes32 _role, address _account) external onlyAdmin(ADMIN){... */\n    tag_4:\n      tag_10\n      0x04\n      dup1\n      calldatasize\n      sub\n      dup2\n      add\n      swap1\n      tag_11\n      swap2\n      swap1\n      tag_8\n      jump\t// in\n    tag_11:\n      tag_12\n      jump\t// in\n    tag_10:\n      stop\n        /* \"ControlAcceso.sol\":246:305  mapping (bytes32 => mapping (address => bool)) public roles */\n    tag_5:\n      tag_13\n      0x04\n      dup1\n      calldatasize\n      sub\n      dup2\n      add\n      swap1\n      tag_14\n      swap2\n      swap1\n      tag_8\n      jump\t// in\n    tag_14:\n      tag_15\n      jump\t// in\n    tag_13:\n      mload(0x40)\n      tag_16\n      swap2\n      swap1\n      tag_17\n      jump\t// in\n    tag_16:\n      mload(0x40)\n      dup1\n      swap2\n      sub\n      swap1\n      return\n        /* \"ControlAcceso.sol\":1209:1334  function AssignRole(bytes32 _role, address _account) external onlyAdmin(ADMIN){... */\n    tag_9:\n        /* \"ControlAcceso.sol\":447:472  abi.encodePacked(\"ADMIN\") */\n      add(0x20, mload(0x40))\n      tag_18\n      swap1\n      tag_19\n      jump\t// in\n    tag_18:\n      mload(0x40)\n      0x20\n      dup2\n      dup4\n      sub\n      sub\n      dup2\n      mstore\n      swap1\n      0x40\n      mstore\n        /* \"ControlAcceso.sol\":437:473  keccak256(abi.encodePacked(\"ADMIN\")) */\n      dup1\n      mload\n      swap1\n      0x20\n      add\n      keccak256\n        /* \"ControlAcceso.sol\":696:701  roles */\n      0x00\n        /* \"ControlAcceso.sol\":696:708  roles[_role] */\n      dup1\n        /* \"ControlAcceso.sol\":702:707  _role */\n      dup3\n        /* \"ControlAcceso.sol\":696:708  roles[_role] */\n      dup2\n      mstore\n      0x20\n      add\n      swap1\n      dup2\n      mstore\n      0x20\n      add\n      0x00\n      keccak256\n        /* \"ControlAcceso.sol\":696:720  roles[_role][msg.sender] */\n      0x00\n        /* \"ControlAcceso.sol\":709:719  msg.sender */\n      caller\n        /* \"ControlAcceso.sol\":696:720  roles[_role][msg.sender] */\n      0xffffffffffffffffffffffffffffffffffffffff\n      and\n      0xffffffffffffffffffffffffffffffffffffffff\n      and\n      dup2\n      mstore\n      0x20\n      add\n      swap1\n      dup2\n      mstore\n      0x20\n      add\n      0x00\n      keccak256\n      0x00\n      swap1\n      sload\n      swap1\n      0x0100\n      exp\n      swap1\n      div\n      0xff\n      and\n        /* \"ControlAcceso.sol\":688:741  require(roles[_role][msg.sender], \"User not allowed\") */\n      tag_21\n      jumpi\n      mload(0x40)\n      0x08c379a000000000000000000000000000000000000000000000000000000000\n      dup2\n      mstore\n      0x04\n      add\n      tag_22\n      swap1\n      tag_23\n      jump\t// in\n    tag_22:\n      mload(0x40)\n      dup1\n      swap2\n      sub\n      swap1\n      revert\n    tag_21:\n        /* \"ControlAcceso.sol\":1298:1326  _assignRole(_role, _account) */\n      tag_25\n        /* \"ControlAcceso.sol\":1310:1315  _role */\n      dup4\n        /* \"ControlAcceso.sol\":1317:1325  _account */\n      dup4\n        /* \"ControlAcceso.sol\":1298:1309  _assignRole */\n      tag_26\n        /* \"ControlAcceso.sol\":1298:1326  _assignRole(_role, _account) */\n      jump\t// in\n    tag_25:\n        /* \"ControlAcceso.sol\":1209:1334  function AssignRole(bytes32 _role, address _account) external onlyAdmin(ADMIN){... */\n      pop\n      pop\n      pop\n      jump\t// out\n        /* \"ControlAcceso.sol\":1382:1507  function RemoveRole(bytes32 _role, address _account) external onlyAdmin(ADMIN){... */\n    tag_12:\n        /* \"ControlAcceso.sol\":447:472  abi.encodePacked(\"ADMIN\") */\n      add(0x20, mload(0x40))\n      tag_27\n      swap1\n      tag_19\n      jump\t// in\n    tag_27:\n      mload(0x40)\n      0x20\n      dup2\n      dup4\n      sub\n      sub\n      dup2\n      mstore\n      swap1\n      0x40\n      mstore\n        /* \"ControlAcceso.sol\":437:473  keccak256(abi.encodePacked(\"ADMIN\")) */\n      dup1\n      mload\n      swap1\n      0x20\n      add\n      keccak256\n        /* \"ControlAcceso.sol\":696:701  roles */\n      0x00\n        /* \"ControlAcceso.sol\":696:708  roles[_role] */\n      dup1\n        /* \"ControlAcceso.sol\":702:707  _role */\n      dup3\n        /* \"ControlAcceso.sol\":696:708  roles[_role] */\n      dup2\n      mstore\n      0x20\n      add\n      swap1\n      dup2\n      mstore\n      0x20\n      add\n      0x00\n      keccak256\n        /* \"ControlAcceso.sol\":696:720  roles[_role][msg.sender] */\n      0x00\n        /* \"ControlAcceso.sol\":709:719  msg.sender */\n      caller\n        /* \"ControlAcceso.sol\":696:720  roles[_role][msg.sender] */\n      0xffffffffffffffffffffffffffffffffffffffff\n      and\n      0xffffffffffffffffffffffffffffffffffffffff\n      and\n      dup2\n      mstore\n      0x20\n      add\n      swap1\n      dup2\n      mstore\n      0x20\n      add\n      0x00\n      keccak256\n      0x00\n      swap1\n      sload\n      swap1\n      0x0100\n      exp\n      swap1\n      div\n      0xff\n      and\n        /* \"ControlAcceso.sol\":688:741  require(roles[_role][msg.sender], \"User not allowed\") */\n      tag_29\n      jumpi\n      mload(0x40)\n      0x08c379a000000000000000000000000000000000000000000000000000000000\n      dup2\n      mstore\n      0x04\n      add\n      tag_30\n      swap1\n      tag_23\n      jump\t// in\n    tag_30:\n      mload(0x40)\n      dup1\n      swap2\n      sub\n      swap1\n      revert\n    tag_29:\n        /* \"ControlAcceso.sol\":1471:1499  _removeRole(_role, _account) */\n      tag_32\n        /* \"ControlAcceso.sol\":1483:1488  _role */\n      dup4\n        /* \"ControlAcceso.sol\":1490:1498  _account */\n      dup4\n        /* \"ControlAcceso.sol\":1471:1482  _removeRole */\n      tag_33\n        /* \"ControlAcceso.sol\":1471:1499  _removeRole(_role, _account) */\n      jump\t// in\n    tag_32:\n        /* \"ControlAcceso.sol\":1382:1507  function RemoveRole(bytes32 _role, address _account) external onlyAdmin(ADMIN){... */\n      pop\n      pop\n      pop\n      jump\t// out\n        /* \"ControlAcceso.sol\":246:305  mapping (bytes32 => mapping (address => bool)) public roles */\n    tag_15:\n      mstore(0x20, 0x00)\n      dup2\n      0x00\n      mstore\n      mstore(0x20, keccak256(0x00, 0x40))\n      dup1\n      0x00\n      mstore\n      keccak256(0x00, 0x40)\n      0x00\n      swap2\n      pop\n      swap2\n      pop\n      swap1\n      sload\n      swap1\n      0x0100\n      exp\n      swap1\n      div\n      0xff\n      and\n      dup2\n      jump\t// out\n        /* \"ControlAcceso.sol\":841:997  function _assignRole(bytes32 _role, address _account) internal {... */\n    tag_26:\n        /* \"ControlAcceso.sol\":940:944  true */\n      0x01\n        /* \"ControlAcceso.sol\":915:920  roles */\n      0x00\n        /* \"ControlAcceso.sol\":915:927  roles[_role] */\n      dup1\n        /* \"ControlAcceso.sol\":921:926  _role */\n      dup5\n        /* \"ControlAcceso.sol\":915:927  roles[_role] */\n      dup2\n      mstore\n      0x20\n      add\n      swap1\n      dup2\n      mstore\n      0x20\n      add\n      0x00\n      keccak256\n        /* \"ControlAcceso.sol\":915:937  roles[_role][_account] */\n      0x00\n        /* \"ControlAcceso.sol\":928:936  _account */\n      dup4\n        /* \"ControlAcceso.sol\":915:937  roles[_role][_account] */\n      0xffffffffffffffffffffffffffffffffffffffff\n      and\n      0xffffffffffffffffffffffffffffffffffffffff\n      and\n      dup2\n      mstore\n      0x20\n      add\n      swap1\n      dup2\n      mstore\n      0x20\n      add\n      0x00\n      keccak256\n      0x00\n        /* \"ControlAcceso.sol\":915:944  roles[_role][_account] = true */\n      0x0100\n      exp\n      dup2\n      sload\n      dup2\n      0xff\n      mul\n      not\n      and\n      swap1\n      dup4\n      iszero\n      iszero\n      mul\n      or\n      swap1\n      sstore\n      pop\n        /* \"ControlAcceso.sol\":980:988  _account */\n      dup1\n        /* \"ControlAcceso.sol\":960:989  RoleAssigned(_role, _account) */\n      0xffffffffffffffffffffffffffffffffffffffff\n      and\n        /* \"ControlAcceso.sol\":973:978  _role */\n      dup3\n        /* \"ControlAcceso.sol\":960:989  RoleAssigned(_role, _account) */\n      0x8122312829fb608b8d31c14e44cba6826748abddc350818605bfc69eb7ff3847\n      mload(0x40)\n      mload(0x40)\n      dup1\n      swap2\n      sub\n      swap1\n      log3\n        /* \"ControlAcceso.sol\":841:997  function _assignRole(bytes32 _role, address _account) internal {... */\n      pop\n      pop\n      jump\t// out\n        /* \"ControlAcceso.sol\":1005:1161  function _removeRole(bytes32 _role, address _account) internal {... */\n    tag_33:\n        /* \"ControlAcceso.sol\":1104:1109  false */\n      0x00\n        /* \"ControlAcceso.sol\":1079:1084  roles */\n      dup1\n        /* \"ControlAcceso.sol\":1079:1091  roles[_role] */\n      0x00\n        /* \"ControlAcceso.sol\":1085:1090  _role */\n      dup5\n        /* \"ControlAcceso.sol\":1079:1091  roles[_role] */\n      dup2\n      mstore\n      0x20\n      add\n      swap1\n      dup2\n      mstore\n      0x20\n      add\n      0x00\n      keccak256\n        /* \"ControlAcceso.sol\":1079:1101  roles[_role][_account] */\n      0x00\n        /* \"ControlAcceso.sol\":1092:1100  _account */\n      dup4\n        /* \"ControlAcceso.sol\":1079:1101  roles[_role][_account] */\n      0xffffffffffffffffffffffffffffffffffffffff\n      and\n      0xffffffffffffffffffffffffffffffffffffffff\n      and\n      dup2\n      mstore\n      0x20\n      add\n      swap1\n      dup2\n      mstore\n      0x20\n      add\n      0x00\n      keccak256\n      0x00\n        /* \"ControlAcceso.sol\":1079:1109  roles[_role][_account] = false */\n      0x0100\n      exp\n      dup2\n      sload\n      dup2\n      0xff\n      mul\n      not\n      and\n      swap1\n      dup4\n      iszero\n      iszero\n      mul\n      or\n      swap1\n      sstore\n      pop\n        /* \"ControlAcceso.sol\":1144:1152  _account */\n      dup1\n        /* \"ControlAcceso.sol\":1125:1153  RoleRemoved(_role, _account) */\n      0xffffffffffffffffffffffffffffffffffffffff\n      and\n        /* \"ControlAcceso.sol\":1137:1142  _role */\n      dup3\n        /* \"ControlAcceso.sol\":1125:1153  RoleRemoved(_role, _account) */\n      0x386d9cbd39c6982fff442b5b01ad1d6d816ae1aaf10be0bfb45e8c19d25fc7cd\n      mload(0x40)\n      mload(0x40)\n      dup1\n      swap2\n      sub\n      swap1\n      log3\n        /* \"ControlAcceso.sol\":1005:1161  function _removeRole(bytes32 _role, address _account) internal {... */\n      pop\n      pop\n      jump\t// out\n        /* \"#utility.yul\":88:205   */\n    tag_37:\n        /* \"#utility.yul\":197:198   */\n      0x00\n        /* \"#utility.yul\":194:195   */\n      dup1\n        /* \"#utility.yul\":187:199   */\n      revert\n        /* \"#utility.yul\":334:411   */\n    tag_39:\n        /* \"#utility.yul\":371:378   */\n      0x00\n        /* \"#utility.yul\":400:405   */\n      dup2\n        /* \"#utility.yul\":389:405   */\n      swap1\n      pop\n        /* \"#utility.yul\":334:411   */\n      swap2\n      swap1\n      pop\n      jump\t// out\n        /* \"#utility.yul\":417:539   */\n    tag_40:\n        /* \"#utility.yul\":490:514   */\n      tag_60\n        /* \"#utility.yul\":508:513   */\n      dup2\n        /* \"#utility.yul\":490:514   */\n      tag_39\n      jump\t// in\n    tag_60:\n        /* \"#utility.yul\":483:488   */\n      dup2\n        /* \"#utility.yul\":480:515   */\n      eq\n        /* \"#utility.yul\":470:533   */\n      tag_61\n      jumpi\n        /* \"#utility.yul\":529:530   */\n      0x00\n        /* \"#utility.yul\":526:527   */\n      dup1\n        /* \"#utility.yul\":519:531   */\n      revert\n        /* \"#utility.yul\":470:533   */\n    tag_61:\n        /* \"#utility.yul\":417:539   */\n      pop\n      jump\t// out\n        /* \"#utility.yul\":545:684   */\n    tag_41:\n        /* \"#utility.yul\":591:596   */\n      0x00\n        /* \"#utility.yul\":629:635   */\n      dup2\n        /* \"#utility.yul\":616:636   */\n      calldataload\n        /* \"#utility.yul\":607:636   */\n      swap1\n      pop\n        /* \"#utility.yul\":645:678   */\n      tag_63\n        /* \"#utility.yul\":672:677   */\n      dup2\n        /* \"#utility.yul\":645:678   */\n      tag_40\n      jump\t// in\n    tag_63:\n        /* \"#utility.yul\":545:684   */\n      swap3\n      swap2\n      pop\n      pop\n      jump\t// out\n        /* \"#utility.yul\":690:816   */\n    tag_42:\n        /* \"#utility.yul\":727:734   */\n      0x00\n        /* \"#utility.yul\":767:809   */\n      0xffffffffffffffffffffffffffffffffffffffff\n        /* \"#utility.yul\":760:765   */\n      dup3\n        /* \"#utility.yul\":756:810   */\n      and\n        /* \"#utility.yul\":745:810   */\n      swap1\n      pop\n        /* \"#utility.yul\":690:816   */\n      swap2\n      swap1\n      pop\n      jump\t// out\n        /* \"#utility.yul\":822:918   */\n    tag_43:\n        /* \"#utility.yul\":859:866   */\n      0x00\n        /* \"#utility.yul\":888:912   */\n      tag_66\n        /* \"#utility.yul\":906:911   */\n      dup3\n        /* \"#utility.yul\":888:912   */\n      tag_42\n      jump\t// in\n    tag_66:\n        /* \"#utility.yul\":877:912   */\n      swap1\n      pop\n        /* \"#utility.yul\":822:918   */\n      swap2\n      swap1\n      pop\n      jump\t// out\n        /* \"#utility.yul\":924:1046   */\n    tag_44:\n        /* \"#utility.yul\":997:1021   */\n      tag_68\n        /* \"#utility.yul\":1015:1020   */\n      dup2\n        /* \"#utility.yul\":997:1021   */\n      tag_43\n      jump\t// in\n    tag_68:\n        /* \"#utility.yul\":990:995   */\n      dup2\n        /* \"#utility.yul\":987:1022   */\n      eq\n        /* \"#utility.yul\":977:1040   */\n      tag_69\n      jumpi\n        /* \"#utility.yul\":1036:1037   */\n      0x00\n        /* \"#utility.yul\":1033:1034   */\n      dup1\n        /* \"#utility.yul\":1026:1038   */\n      revert\n        /* \"#utility.yul\":977:1040   */\n    tag_69:\n        /* \"#utility.yul\":924:1046   */\n      pop\n      jump\t// out\n        /* \"#utility.yul\":1052:1191   */\n    tag_45:\n        /* \"#utility.yul\":1098:1103   */\n      0x00\n        /* \"#utility.yul\":1136:1142   */\n      dup2\n        /* \"#utility.yul\":1123:1143   */\n      calldataload\n        /* \"#utility.yul\":1114:1143   */\n      swap1\n      pop\n        /* \"#utility.yul\":1152:1185   */\n      tag_71\n        /* \"#utility.yul\":1179:1184   */\n      dup2\n        /* \"#utility.yul\":1152:1185   */\n      tag_44\n      jump\t// in\n    tag_71:\n        /* \"#utility.yul\":1052:1191   */\n      swap3\n      swap2\n      pop\n      pop\n      jump\t// out\n        /* \"#utility.yul\":1197:1671   */\n    tag_8:\n        /* \"#utility.yul\":1265:1271   */\n      0x00\n        /* \"#utility.yul\":1273:1279   */\n      dup1\n        /* \"#utility.yul\":1322:1324   */\n      0x40\n        /* \"#utility.yul\":1310:1319   */\n      dup4\n        /* \"#utility.yul\":1301:1308   */\n      dup6\n        /* \"#utility.yul\":1297:1320   */\n      sub\n        /* \"#utility.yul\":1293:1325   */\n      slt\n        /* \"#utility.yul\":1290:1409   */\n      iszero\n      tag_73\n      jumpi\n        /* \"#utility.yul\":1328:1407   */\n      tag_74\n      tag_37\n      jump\t// in\n    tag_74:\n        /* \"#utility.yul\":1290:1409   */\n    tag_73:\n        /* \"#utility.yul\":1448:1449   */\n      0x00\n        /* \"#utility.yul\":1473:1526   */\n      tag_75\n        /* \"#utility.yul\":1518:1525   */\n      dup6\n        /* \"#utility.yul\":1509:1515   */\n      dup3\n        /* \"#utility.yul\":1498:1507   */\n      dup7\n        /* \"#utility.yul\":1494:1516   */\n      add\n        /* \"#utility.yul\":1473:1526   */\n      tag_41\n      jump\t// in\n    tag_75:\n        /* \"#utility.yul\":1463:1526   */\n      swap3\n      pop\n        /* \"#utility.yul\":1419:1536   */\n      pop\n        /* \"#utility.yul\":1575:1577   */\n      0x20\n        /* \"#utility.yul\":1601:1654   */\n      tag_76\n        /* \"#utility.yul\":1646:1653   */\n      dup6\n        /* \"#utility.yul\":1637:1643   */\n      dup3\n        /* \"#utility.yul\":1626:1635   */\n      dup7\n        /* \"#utility.yul\":1622:1644   */\n      add\n        /* \"#utility.yul\":1601:1654   */\n      tag_45\n      jump\t// in\n    tag_76:\n        /* \"#utility.yul\":1591:1654   */\n      swap2\n      pop\n        /* \"#utility.yul\":1546:1664   */\n      pop\n        /* \"#utility.yul\":1197:1671   */\n      swap3\n      pop\n      swap3\n      swap1\n      pop\n      jump\t// out\n        /* \"#utility.yul\":1677:1767   */\n    tag_46:\n        /* \"#utility.yul\":1711:1718   */\n      0x00\n        /* \"#utility.yul\":1754:1759   */\n      dup2\n        /* \"#utility.yul\":1747:1760   */\n      iszero\n        /* \"#utility.yul\":1740:1761   */\n      iszero\n        /* \"#utility.yul\":1729:1761   */\n      swap1\n      pop\n        /* \"#utility.yul\":1677:1767   */\n      swap2\n      swap1\n      pop\n      jump\t// out\n        /* \"#utility.yul\":1773:1882   */\n    tag_47:\n        /* \"#utility.yul\":1854:1875   */\n      tag_79\n        /* \"#utility.yul\":1869:1874   */\n      dup2\n        /* \"#utility.yul\":1854:1875   */\n      tag_46\n      jump\t// in\n    tag_79:\n        /* \"#utility.yul\":1849:1852   */\n      dup3\n        /* \"#utility.yul\":1842:1876   */\n      mstore\n        /* \"#utility.yul\":1773:1882   */\n      pop\n      pop\n      jump\t// out\n        /* \"#utility.yul\":1888:2098   */\n    tag_17:\n        /* \"#utility.yul\":1975:1979   */\n      0x00\n        /* \"#utility.yul\":2013:2015   */\n      0x20\n        /* \"#utility.yul\":2002:2011   */\n      dup3\n        /* \"#utility.yul\":1998:2016   */\n      add\n        /* \"#utility.yul\":1990:2016   */\n      swap1\n      pop\n        /* \"#utility.yul\":2026:2091   */\n      tag_81\n        /* \"#utility.yul\":2088:2089   */\n      0x00\n        /* \"#utility.yul\":2077:2086   */\n      dup4\n        /* \"#utility.yul\":2073:2090   */\n      add\n        /* \"#utility.yul\":2064:2070   */\n      dup5\n        /* \"#utility.yul\":2026:2091   */\n      tag_47\n      jump\t// in\n    tag_81:\n        /* \"#utility.yul\":1888:2098   */\n      swap3\n      swap2\n      pop\n      pop\n      jump\t// out\n        /* \"#utility.yul\":2104:2252   */\n    tag_48:\n        /* \"#utility.yul\":2206:2217   */\n      0x00\n        /* \"#utility.yul\":2243:2246   */\n      dup2\n        /* \"#utility.yul\":2228:2246   */\n      swap1\n      pop\n        /* \"#utility.yul\":2104:2252   */\n      swap3\n      swap2\n      pop\n      pop\n      jump\t// out\n        /* \"#utility.yul\":2258:2413   */\n    tag_49:\n        /* \"#utility.yul\":2398:2405   */\n      0x41444d494e000000000000000000000000000000000000000000000000000000\n        /* \"#utility.yul\":2394:2395   */\n      0x00\n        /* \"#utility.yul\":2386:2392   */\n      dup3\n        /* \"#utility.yul\":2382:2396   */\n      add\n        /* \"#utility.yul\":2375:2406   */\n      mstore\n        /* \"#utility.yul\":2258:2413   */\n      pop\n      jump\t// out\n        /* \"#utility.yul\":2419:2819   */\n    tag_50:\n        /* \"#utility.yul\":2579:2582   */\n      0x00\n        /* \"#utility.yul\":2600:2684   */\n      tag_85\n        /* \"#utility.yul\":2682:2683   */\n      0x05\n        /* \"#utility.yul\":2677:2680   */\n      dup4\n        /* \"#utility.yul\":2600:2684   */\n      tag_48\n      jump\t// in\n    tag_85:\n        /* \"#utility.yul\":2593:2684   */\n      swap2\n      pop\n        /* \"#utility.yul\":2693:2786   */\n      tag_86\n        /* \"#utility.yul\":2782:2785   */\n      dup3\n        /* \"#utility.yul\":2693:2786   */\n      tag_49\n      jump\t// in\n    tag_86:\n        /* \"#utility.yul\":2811:2812   */\n      0x05\n        /* \"#utility.yul\":2806:2809   */\n      dup3\n        /* \"#utility.yul\":2802:2813   */\n      add\n        /* \"#utility.yul\":2795:2813   */\n      swap1\n      pop\n        /* \"#utility.yul\":2419:2819   */\n      swap2\n      swap1\n      pop\n      jump\t// out\n        /* \"#utility.yul\":2825:3206   */\n    tag_19:\n        /* \"#utility.yul\":3010:3013   */\n      0x00\n        /* \"#utility.yul\":3032:3180   */\n      tag_88\n        /* \"#utility.yul\":3176:3179   */\n      dup3\n        /* \"#utility.yul\":3032:3180   */\n      tag_50\n      jump\t// in\n    tag_88:\n        /* \"#utility.yul\":3025:3180   */\n      swap2\n      pop\n        /* \"#utility.yul\":3197:3200   */\n      dup2\n        /* \"#utility.yul\":3190:3200   */\n      swap1\n      pop\n        /* \"#utility.yul\":2825:3206   */\n      swap2\n      swap1\n      pop\n      jump\t// out\n        /* \"#utility.yul\":3212:3381   */\n    tag_51:\n        /* \"#utility.yul\":3296:3307   */\n      0x00\n        /* \"#utility.yul\":3330:3336   */\n      dup3\n        /* \"#utility.yul\":3325:3328   */\n      dup3\n        /* \"#utility.yul\":3318:3337   */\n      mstore\n        /* \"#utility.yul\":3370:3374   */\n      0x20\n        /* \"#utility.yul\":3365:3368   */\n      dup3\n        /* \"#utility.yul\":3361:3375   */\n      add\n        /* \"#utility.yul\":3346:3375   */\n      swap1\n      pop\n        /* \"#utility.yul\":3212:3381   */\n      swap3\n      swap2\n      pop\n      pop\n      jump\t// out\n        /* \"#utility.yul\":3387:3553   */\n    tag_52:\n        /* \"#utility.yul\":3527:3545   */\n      0x55736572206e6f7420616c6c6f77656400000000000000000000000000000000\n        /* \"#utility.yul\":3523:3524   */\n      0x00\n        /* \"#utility.yul\":3515:3521   */\n      dup3\n        /* \"#utility.yul\":3511:3525   */\n      add\n        /* \"#utility.yul\":3504:3546   */\n      mstore\n        /* \"#utility.yul\":3387:3553   */\n      pop\n      jump\t// out\n        /* \"#utility.yul\":3559:3925   */\n    tag_53:\n        /* \"#utility.yul\":3701:3704   */\n      0x00\n        /* \"#utility.yul\":3722:3789   */\n      tag_92\n        /* \"#utility.yul\":3786:3788   */\n      0x10\n        /* \"#utility.yul\":3781:3784   */\n      dup4\n        /* \"#utility.yul\":3722:3789   */\n      tag_51\n      jump\t// in\n    tag_92:\n        /* \"#utility.yul\":3715:3789   */\n      swap2\n      pop\n        /* \"#utility.yul\":3798:3891   */\n      tag_93\n        /* \"#utility.yul\":3887:3890   */\n      dup3\n        /* \"#utility.yul\":3798:3891   */\n      tag_52\n      jump\t// in\n    tag_93:\n        /* \"#utility.yul\":3916:3918   */\n      0x20\n        /* \"#utility.yul\":3911:3914   */\n      dup3\n        /* \"#utility.yul\":3907:3919   */\n      add\n        /* \"#utility.yul\":3900:3919   */\n      swap1\n      pop\n        /* \"#utility.yul\":3559:3925   */\n      swap2\n      swap1\n      pop\n      jump\t// out\n        /* \"#utility.yul\":3931:4350   */\n    tag_23:\n        /* \"#utility.yul\":4097:4101   */\n      0x00\n        /* \"#utility.yul\":4135:4137   */\n      0x20\n        /* \"#utility.yul\":4124:4133   */\n      dup3\n        /* \"#utility.yul\":4120:4138   */\n      add\n        /* \"#utility.yul\":4112:4138   */\n      swap1\n      pop\n        /* \"#utility.yul\":4184:4193   */\n      dup2\n        /* \"#utility.yul\":4178:4182   */\n      dup2\n        /* \"#utility.yul\":4174:4194   */\n      sub\n        /* \"#utility.yul\":4170:4171   */\n      0x00\n        /* \"#utility.yul\":4159:4168   */\n      dup4\n        /* \"#utility.yul\":4155:4172   */\n      add\n        /* \"#utility.yul\":4148:4195   */\n      mstore\n        /* \"#utility.yul\":4212:4343   */\n      tag_95\n        /* \"#utility.yul\":4338:4342   */\n      dup2\n        /* \"#utility.yul\":4212:4343   */\n      tag_53\n      jump\t// in\n    tag_95:\n        /* \"#utility.yul\":4204:4343   */\n      swap1\n      pop\n        /* \"#utility.yul\":3931:4350   */\n      swap2\n      swap1\n      pop\n      jump\t// out\n\n    auxdata: 0xa26469706673582212208614ae95d308aacc884430345ca2ea115a666c0b424f6a62b9d10254d225118664736f6c634300081a0033\n}\n",
				"bytecode": {
					"linkReferences": {},
					"object": "608060405234801561000f575f80fd5b5061004460405160200161002290610148565b604051602081830303815290604052805190602001203361004960201b60201c565b61015c565b60015f808481526020019081526020015f205f8373ffffffffffffffffffffffffffffffffffffffff1673ffffffffffffffffffffffffffffffffffffffff1681526020019081526020015f205f6101000a81548160ff0219169083151502179055508073ffffffffffffffffffffffffffffffffffffffff16827f8122312829fb608b8d31c14e44cba6826748abddc350818605bfc69eb7ff384760405160405180910390a35050565b5f81905092915050565b7f41444d494e0000000000000000000000000000000000000000000000000000005f82015250565b5f6101326005836100f4565b915061013d826100fe565b600582019050919050565b5f61015282610126565b9150819050919050565b6105d7806101695f395ff3fe608060405234801561000f575f80fd5b506004361061003f575f3560e01c806301627bb414610043578063361ed2041461005f578063f8fc08b91461007b575b5f80fd5b61005d60048036038101906100589190610450565b6100ab565b005b61007960048036038101906100749190610450565b610176565b005b61009560048036038101906100909190610450565b610241565b6040516100a291906104a8565b60405180910390f35b6040516020016100ba90610515565b604051602081830303815290604052805190602001205f808281526020019081526020015f205f3373ffffffffffffffffffffffffffffffffffffffff1673ffffffffffffffffffffffffffffffffffffffff1681526020019081526020015f205f9054906101000a900460ff16610167576040517f08c379a000000000000000000000000000000000000000000000000000000000815260040161015e90610583565b60405180910390fd5b610171838361026a565b505050565b60405160200161018590610515565b604051602081830303815290604052805190602001205f808281526020019081526020015f205f3373ffffffffffffffffffffffffffffffffffffffff1673ffffffffffffffffffffffffffffffffffffffff1681526020019081526020015f205f9054906101000a900460ff16610232576040517f08c379a000000000000000000000000000000000000000000000000000000000815260040161022990610583565b60405180910390fd5b61023c8383610315565b505050565b5f602052815f5260405f20602052805f5260405f205f915091509054906101000a900460ff1681565b60015f808481526020019081526020015f205f8373ffffffffffffffffffffffffffffffffffffffff1673ffffffffffffffffffffffffffffffffffffffff1681526020019081526020015f205f6101000a81548160ff0219169083151502179055508073ffffffffffffffffffffffffffffffffffffffff16827f8122312829fb608b8d31c14e44cba6826748abddc350818605bfc69eb7ff384760405160405180910390a35050565b5f805f8481526020019081526020015f205f8373ffffffffffffffffffffffffffffffffffffffff1673ffffffffffffffffffffffffffffffffffffffff1681526020019081526020015f205f6101000a81548160ff0219169083151502179055508073ffffffffffffffffffffffffffffffffffffffff16827f386d9cbd39c6982fff442b5b01ad1d6d816ae1aaf10be0bfb45e8c19d25fc7cd60405160405180910390a35050565b5f80fd5b5f819050919050565b6103d5816103c3565b81146103df575f80fd5b50565b5f813590506103f0816103cc565b92915050565b5f73ffffffffffffffffffffffffffffffffffffffff82169050919050565b5f61041f826103f6565b9050919050565b61042f81610415565b8114610439575f80fd5b50565b5f8135905061044a81610426565b92915050565b5f8060408385031215610466576104656103bf565b5b5f610473858286016103e2565b92505060206104848582860161043c565b9150509250929050565b5f8115159050919050565b6104a28161048e565b82525050565b5f6020820190506104bb5f830184610499565b92915050565b5f81905092915050565b7f41444d494e0000000000000000000000000000000000000000000000000000005f82015250565b5f6104ff6005836104c1565b915061050a826104cb565b600582019050919050565b5f61051f826104f3565b9150819050919050565b5f82825260208201905092915050565b7f55736572206e6f7420616c6c6f776564000000000000000000000000000000005f82015250565b5f61056d601083610529565b915061057882610539565b602082019050919050565b5f6020820190508181035f83015261059a81610561565b905091905056fea26469706673582212208614ae95d308aacc884430345ca2ea115a666c0b424f6a62b9d10254d225118664736f6c634300081a0033",
					"opcodes": "PUSH1 0x80 PUSH1 0x40 MSTORE CALLVALUE DUP1 ISZERO PUSH2 0xF JUMPI PUSH0 DUP1 REVERT JUMPDEST POP PUSH2 0x44 PUSH1 0x40 MLOAD PUSH1 0x20 ADD PUSH2 0x22 SWAP1 PUSH2 0x148 JUMP JUMPDEST PUSH1 0x40 MLOAD PUSH1 0x20 DUP2 DUP4 SUB SUB DUP2 MSTORE SWAP1 PUSH1 0x40 MSTORE DUP1 MLOAD SWAP1 PUSH1 0x20 ADD KECCAK256 CALLER PUSH2 0x49 PUSH1 0x20 SHL PUSH1 0x20 SHR JUMP JUMPDEST PUSH2 0x15C JUMP JUMPDEST PUSH1 0x1 PUSH0 DUP1 DUP5 DUP2 MSTORE PUSH1 0x20 ADD SWAP1 DUP2 MSTORE PUSH1 0x20 ADD PUSH0 KECCAK256 PUSH0 DUP4 PUSH20 0xFFFFFFFFFFFFFFFFFFFFFFFFFFFFFFFFFFFFFFFF AND PUSH20 0xFFFFFFFFFFFFFFFFFFFFFFFFFFFFFFFFFFFFFFFF AND DUP2 MSTORE PUSH1 0x20 ADD SWAP1 DUP2 MSTORE PUSH1 0x20 ADD PUSH0 KECCAK256 PUSH0 PUSH2 0x100 EXP DUP2 SLOAD DUP2 PUSH1 0xFF MUL NOT AND SWAP1 DUP4 ISZERO ISZERO MUL OR SWAP1 SSTORE POP DUP1 PUSH20 0xFFFFFFFFFFFFFFFFFFFFFFFFFFFFFFFFFFFFFFFF AND DUP3 PUSH32 0x8122312829FB608B8D31C14E44CBA6826748ABDDC350818605BFC69EB7FF3847 PUSH1 0x40 MLOAD PUSH1 0x40 MLOAD DUP1 SWAP2 SUB SWAP1 LOG3 POP POP JUMP JUMPDEST PUSH0 DUP2 SWAP1 POP SWAP3 SWAP2 POP POP JUMP JUMPDEST PUSH32 0x41444D494E000000000000000000000000000000000000000000000000000000 PUSH0 DUP3 ADD MSTORE POP JUMP JUMPDEST PUSH0 PUSH2 0x132 PUSH1 0x5 DUP4 PUSH2 0xF4 JUMP JUMPDEST SWAP2 POP PUSH2 0x13D DUP3 PUSH2 0xFE JUMP JUMPDEST PUSH1 0x5 DUP3 ADD SWAP1 POP SWAP2 SWAP1 POP JUMP JUMPDEST PUSH0 PUSH2 0x152 DUP3 PUSH2 0x126 JUMP JUMPDEST SWAP2 POP DUP2 SWAP1 POP SWAP2 SWAP1 POP JUMP JUMPDEST PUSH2 0x5D7 DUP1 PUSH2 0x169 PUSH0 CODECOPY PUSH0 RETURN INVALID PUSH1 0x80 PUSH1 0x40 MSTORE CALLVALUE DUP1 ISZERO PUSH2 0xF JUMPI PUSH0 DUP1 REVERT JUMPDEST POP PUSH1 0x4 CALLDATASIZE LT PUSH2 0x3F JUMPI PUSH0 CALLDATALOAD PUSH1 0xE0 SHR DUP1 PUSH4 0x1627BB4 EQ PUSH2 0x43 JUMPI DUP1 PUSH4 0x361ED204 EQ PUSH2 0x5F JUMPI DUP1 PUSH4 0xF8FC08B9 EQ PUSH2 0x7B JUMPI JUMPDEST PUSH0 DUP1 REVERT JUMPDEST PUSH2 0x5D PUSH1 0x4 DUP1 CALLDATASIZE SUB DUP2 ADD SWAP1 PUSH2 0x58 SWAP2 SWAP1 PUSH2 0x450 JUMP JUMPDEST PUSH2 0xAB JUMP JUMPDEST STOP JUMPDEST PUSH2 0x79 PUSH1 0x4 DUP1 CALLDATASIZE SUB DUP2 ADD SWAP1 PUSH2 0x74 SWAP2 SWAP1 PUSH2 0x450 JUMP JUMPDEST PUSH2 0x176 JUMP JUMPDEST STOP JUMPDEST PUSH2 0x95 PUSH1 0x4 DUP1 CALLDATASIZE SUB DUP2 ADD SWAP1 PUSH2 0x90 SWAP2 SWAP1 PUSH2 0x450 JUMP JUMPDEST PUSH2 0x241 JUMP JUMPDEST PUSH1 0x40 MLOAD PUSH2 0xA2 SWAP2 SWAP1 PUSH2 0x4A8 JUMP JUMPDEST PUSH1 0x40 MLOAD DUP1 SWAP2 SUB SWAP1 RETURN JUMPDEST PUSH1 0x40 MLOAD PUSH1 0x20 ADD PUSH2 0xBA SWAP1 PUSH2 0x515 JUMP JUMPDEST PUSH1 0x40 MLOAD PUSH1 0x20 DUP2 DUP4 SUB SUB DUP2 MSTORE SWAP1 PUSH1 0x40 MSTORE DUP1 MLOAD SWAP1 PUSH1 0x20 ADD KECCAK256 PUSH0 DUP1 DUP3 DUP2 MSTORE PUSH1 0x20 ADD SWAP1 DUP2 MSTORE PUSH1 0x20 ADD PUSH0 KECCAK256 PUSH0 CALLER PUSH20 0xFFFFFFFFFFFFFFFFFFFFFFFFFFFFFFFFFFFFFFFF AND PUSH20 0xFFFFFFFFFFFFFFFFFFFFFFFFFFFFFFFFFFFFFFFF AND DUP2 MSTORE PUSH1 0x20 ADD SWAP1 DUP2 MSTORE PUSH1 0x20 ADD PUSH0 KECCAK256 PUSH0 SWAP1 SLOAD SWAP1 PUSH2 0x100 EXP SWAP1 DIV PUSH1 0xFF AND PUSH2 0x167 JUMPI PUSH1 0x40 MLOAD PUSH32 0x8C379A000000000000000000000000000000000000000000000000000000000 DUP2 MSTORE PUSH1 0x4 ADD PUSH2 0x15E SWAP1 PUSH2 0x583 JUMP JUMPDEST PUSH1 0x40 MLOAD DUP1 SWAP2 SUB SWAP1 REVERT JUMPDEST PUSH2 0x171 DUP4 DUP4 PUSH2 0x26A JUMP JUMPDEST POP POP POP JUMP JUMPDEST PUSH1 0x40 MLOAD PUSH1 0x20 ADD PUSH2 0x185 SWAP1 PUSH2 0x515 JUMP JUMPDEST PUSH1 0x40 MLOAD PUSH1 0x20 DUP2 DUP4 SUB SUB DUP2 MSTORE SWAP1 PUSH1 0x40 MSTORE DUP1 MLOAD SWAP1 PUSH1 0x20 ADD KECCAK256 PUSH0 DUP1 DUP3 DUP2 MSTORE PUSH1 0x20 ADD SWAP1 DUP2 MSTORE PUSH1 0x20 ADD PUSH0 KECCAK256 PUSH0 CALLER PUSH20 0xFFFFFFFFFFFFFFFFFFFFFFFFFFFFFFFFFFFFFFFF AND PUSH20 0xFFFFFFFFFFFFFFFFFFFFFFFFFFFFFFFFFFFFFFFF AND DUP2 MSTORE PUSH1 0x20 ADD SWAP1 DUP2 MSTORE PUSH1 0x20 ADD PUSH0 KECCAK256 PUSH0 SWAP1 SLOAD SWAP1 PUSH2 0x100 EXP SWAP1 DIV PUSH1 0xFF AND PUSH2 0x232 JUMPI PUSH1 0x40 MLOAD PUSH32 0x8C379A000000000000000000000000000000000000000000000000000000000 DUP2 MSTORE PUSH1 0x4 ADD PUSH2 0x229 SWAP1 PUSH2 0x583 JUMP JUMPDEST PUSH1 0x40 MLOAD DUP1 SWAP2 SUB SWAP1 REVERT JUMPDEST PUSH2 0x23C DUP4 DUP4 PUSH2 0x315 JUMP JUMPDEST POP POP POP JUMP JUMPDEST PUSH0 PUSH1 0x20 MSTORE DUP2 PUSH0 MSTORE PUSH1 0x40 PUSH0 KECCAK256 PUSH1 0x20 MSTORE DUP1 PUSH0 MSTORE PUSH1 0x40 PUSH0 KECCAK256 PUSH0 SWAP2 POP SWAP2 POP SWAP1 SLOAD SWAP1 PUSH2 0x100 EXP SWAP1 DIV PUSH1 0xFF AND DUP2 JUMP JUMPDEST PUSH1 0x1 PUSH0 DUP1 DUP5 DUP2 MSTORE PUSH1 0x20 ADD SWAP1 DUP2 MSTORE PUSH1 0x20 ADD PUSH0 KECCAK256 PUSH0 DUP4 PUSH20 0xFFFFFFFFFFFFFFFFFFFFFFFFFFFFFFFFFFFFFFFF AND PUSH20 0xFFFFFFFFFFFFFFFFFFFFFFFFFFFFFFFFFFFFFFFF AND DUP2 MSTORE PUSH1 0x20 ADD SWAP1 DUP2 MSTORE PUSH1 0x20 ADD PUSH0 KECCAK256 PUSH0 PUSH2 0x100 EXP DUP2 SLOAD DUP2 PUSH1 0xFF MUL NOT AND SWAP1 DUP4 ISZERO ISZERO MUL OR SWAP1 SSTORE POP DUP1 PUSH20 0xFFFFFFFFFFFFFFFFFFFFFFFFFFFFFFFFFFFFFFFF AND DUP3 PUSH32 0x8122312829FB608B8D31C14E44CBA6826748ABDDC350818605BFC69EB7FF3847 PUSH1 0x40 MLOAD PUSH1 0x40 MLOAD DUP1 SWAP2 SUB SWAP1 LOG3 POP POP JUMP JUMPDEST PUSH0 DUP1 PUSH0 DUP5 DUP2 MSTORE PUSH1 0x20 ADD SWAP1 DUP2 MSTORE PUSH1 0x20 ADD PUSH0 KECCAK256 PUSH0 DUP4 PUSH20 0xFFFFFFFFFFFFFFFFFFFFFFFFFFFFFFFFFFFFFFFF AND PUSH20 0xFFFFFFFFFFFFFFFFFFFFFFFFFFFFFFFFFFFFFFFF AND DUP2 MSTORE PUSH1 0x20 ADD SWAP1 DUP2 MSTORE PUSH1 0x20 ADD PUSH0 KECCAK256 PUSH0 PUSH2 0x100 EXP DUP2 SLOAD DUP2 PUSH1 0xFF MUL NOT AND SWAP1 DUP4 ISZERO ISZERO MUL OR SWAP1 SSTORE POP DUP1 PUSH20 0xFFFFFFFFFFFFFFFFFFFFFFFFFFFFFFFFFFFFFFFF AND DUP3 PUSH32 0x386D9CBD39C6982FFF442B5B01AD1D6D816AE1AAF10BE0BFB45E8C19D25FC7CD PUSH1 0x40 MLOAD PUSH1 0x40 MLOAD DUP1 SWAP2 SUB SWAP1 LOG3 POP POP JUMP JUMPDEST PUSH0 DUP1 REVERT JUMPDEST PUSH0 DUP2 SWAP1 POP SWAP2 SWAP1 POP JUMP JUMPDEST PUSH2 0x3D5 DUP2 PUSH2 0x3C3 JUMP JUMPDEST DUP2 EQ PUSH2 0x3DF JUMPI PUSH0 DUP1 REVERT JUMPDEST POP JUMP JUMPDEST PUSH0 DUP2 CALLDATALOAD SWAP1 POP PUSH2 0x3F0 DUP2 PUSH2 0x3CC JUMP JUMPDEST SWAP3 SWAP2 POP POP JUMP JUMPDEST PUSH0 PUSH20 0xFFFFFFFFFFFFFFFFFFFFFFFFFFFFFFFFFFFFFFFF DUP3 AND SWAP1 POP SWAP2 SWAP1 POP JUMP JUMPDEST PUSH0 PUSH2 0x41F DUP3 PUSH2 0x3F6 JUMP JUMPDEST SWAP1 POP SWAP2 SWAP1 POP JUMP JUMPDEST PUSH2 0x42F DUP2 PUSH2 0x415 JUMP JUMPDEST DUP2 EQ PUSH2 0x439 JUMPI PUSH0 DUP1 REVERT JUMPDEST POP JUMP JUMPDEST PUSH0 DUP2 CALLDATALOAD SWAP1 POP PUSH2 0x44A DUP2 PUSH2 0x426 JUMP JUMPDEST SWAP3 SWAP2 POP POP JUMP JUMPDEST PUSH0 DUP1 PUSH1 0x40 DUP4 DUP6 SUB SLT ISZERO PUSH2 0x466 JUMPI PUSH2 0x465 PUSH2 0x3BF JUMP JUMPDEST JUMPDEST PUSH0 PUSH2 0x473 DUP6 DUP3 DUP7 ADD PUSH2 0x3E2 JUMP JUMPDEST SWAP3 POP POP PUSH1 0x20 PUSH2 0x484 DUP6 DUP3 DUP7 ADD PUSH2 0x43C JUMP JUMPDEST SWAP2 POP POP SWAP3 POP SWAP3 SWAP1 POP JUMP JUMPDEST PUSH0 DUP2 ISZERO ISZERO SWAP1 POP SWAP2 SWAP1 POP JUMP JUMPDEST PUSH2 0x4A2 DUP2 PUSH2 0x48E JUMP JUMPDEST DUP3 MSTORE POP POP JUMP JUMPDEST PUSH0 PUSH1 0x20 DUP3 ADD SWAP1 POP PUSH2 0x4BB PUSH0 DUP4 ADD DUP5 PUSH2 0x499 JUMP JUMPDEST SWAP3 SWAP2 POP POP JUMP JUMPDEST PUSH0 DUP2 SWAP1 POP SWAP3 SWAP2 POP POP JUMP JUMPDEST PUSH32 0x41444D494E000000000000000000000000000000000000000000000000000000 PUSH0 DUP3 ADD MSTORE POP JUMP JUMPDEST PUSH0 PUSH2 0x4FF PUSH1 0x5 DUP4 PUSH2 0x4C1 JUMP JUMPDEST SWAP2 POP PUSH2 0x50A DUP3 PUSH2 0x4CB JUMP JUMPDEST PUSH1 0x5 DUP3 ADD SWAP1 POP SWAP2 SWAP1 POP JUMP JUMPDEST PUSH0 PUSH2 0x51F DUP3 PUSH2 0x4F3 JUMP JUMPDEST SWAP2 POP DUP2 SWAP1 POP SWAP2 SWAP1 POP JUMP JUMPDEST PUSH0 DUP3 DUP3 MSTORE PUSH1 0x20 DUP3 ADD SWAP1 POP SWAP3 SWAP2 POP POP JUMP JUMPDEST PUSH32 0x55736572206E6F7420616C6C6F77656400000000000000000000000000000000 PUSH0 DUP3 ADD MSTORE POP JUMP JUMPDEST PUSH0 PUSH2 0x56D PUSH1 0x10 DUP4 PUSH2 0x529 JUMP JUMPDEST SWAP2 POP PUSH2 0x578 DUP3 PUSH2 0x539 JUMP JUMPDEST PUSH1 0x20 DUP3 ADD SWAP1 POP SWAP2 SWAP1 POP JUMP JUMPDEST PUSH0 PUSH1 0x20 DUP3 ADD SWAP1 POP DUP2 DUP2 SUB PUSH0 DUP4 ADD MSTORE PUSH2 0x59A DUP2 PUSH2 0x561 JUMP JUMPDEST SWAP1 POP SWAP2 SWAP1 POP JUMP INVALID LOG2 PUSH5 0x6970667358 0x22 SLT KECCAK256 DUP7 EQ 0xAE SWAP6 0xD3 ADDMOD 0xAA 0xCC DUP9 PREVRANDAO ADDRESS CALLVALUE TLOAD LOG2 0xEA GT GAS PUSH7 0x6C0B424F6A62B9 0xD1 MUL SLOAD 0xD2 0x25 GT DUP7 PUSH5 0x736F6C6343 STOP ADDMOD BYTE STOP CALLER "
				},
				"gasEstimates": {
					"creation": {
						"codeDepositCost": "299000",
						"executionCost": "infinite",
						"totalCost": "infinite"
					},
					"external": {
						"AssignRole(bytes32,address)": "29225",
						"RemoveRole(bytes32,address)": "29246",
						"roles(bytes32,address)": "3092"
					},
					"internal": {
						"_assignRole(bytes32,address)": "25991",
						"_removeRole(bytes32,address)": "25990"
					}
				},
				"methodIdentifiers": {
					"AssignRole(bytes32,address)": "01627bb4",
					"RemoveRole(bytes32,address)": "361ed204",
					"roles(bytes32,address)": "f8fc08b9"
				}
			},
			"storageLayout": {
				"storage": [
					{
						"astId": 19,
						"contract": "ControlAcceso.sol:ControlAcceso",
						"label": "roles",
						"offset": 0,
						"slot": "0",
						"type": "t_mapping(t_bytes32,t_mapping(t_address,t_bool))"
					}
				],
				"types": {
					"t_address": {
						"encoding": "inplace",
						"label": "address",
						"numberOfBytes": "20"
					},
					"t_bool": {
						"encoding": "inplace",
						"label": "bool",
						"numberOfBytes": "1"
					},
					"t_bytes32": {
						"encoding": "inplace",
						"label": "bytes32",
						"numberOfBytes": "32"
					},
					"t_mapping(t_address,t_bool)": {
						"encoding": "mapping",
						"key": "t_address",
						"label": "mapping(address => bool)",
						"numberOfBytes": "32",
						"value": "t_bool"
					},
					"t_mapping(t_bytes32,t_mapping(t_address,t_bool))": {
						"encoding": "mapping",
						"key": "t_bytes32",
						"label": "mapping(bytes32 => mapping(address => bool))",
						"numberOfBytes": "32",
						"value": "t_mapping(t_address,t_bool)"
					}
				}
			},
			"userdoc": {
				"kind": "user",
				"methods": {},
				"version": 1
			}
		}
	}
}