{
	"data": {
		"bytecode": {
			"linkReferences": {},
			"object": "6080604052348015600e575f80fd5b506105448061001c5f395ff3fe608060405234801561000f575f80fd5b506004361061003f575f3560e01c806338d94193146100435780634cc82215146100735780637cb5946d1461008f575b5f80fd5b61005d60048036038101906100589190610336565b610099565b60405161006a9190610370565b60405180910390f35b61008d60048036038101906100889190610336565b6100b8565b005b610097610175565b005b5f81815481106100a7575f80fd5b905f5260205f20015f915090505481565b5f8054905081106100fe576040517f08c379a00000000000000000000000000000000000000000000000000000000081526004016100f590610409565b60405180910390fd5b5f8060015f805490506101119190610454565b8154811061012257610121610487565b5b905f5260205f2001549050805f838154811061014157610140610487565b5b905f5260205f2001819055505f80548061015e5761015d6104b4565b5b600190038181905f5260205f20015f905590555050565b6040518060a00160405280600160ff168152602001600260ff168152602001600360ff168152602001600460ff168152602001600560ff168152505f9060056101bf929190610294565b506101ca60016100b8565b60015f80815481106101df576101de610487565b5b905f5260205f200154146101f6576101f56104e1565b5b60055f60018154811061020c5761020b610487565b5b905f5260205f20015414610223576102226104e1565b5b60035f60028154811061023957610238610487565b5b905f5260205f200154146102505761024f6104e1565b5b60045f60038154811061026657610265610487565b5b905f5260205f2001541461027d5761027c6104e1565b5b60045f8054905014610292576102916104e1565b5b565b828054828255905f5260205f209081019282156102d3579160200282015b828111156102d2578251829060ff169055916020019190600101906102b2565b5b5090506102e091906102e4565b5090565b5b808211156102fb575f815f9055506001016102e5565b5090565b5f80fd5b5f819050919050565b61031581610303565b811461031f575f80fd5b50565b5f813590506103308161030c565b92915050565b5f6020828403121561034b5761034a6102ff565b5b5f61035884828501610322565b91505092915050565b61036a81610303565b82525050565b5f6020820190506103835f830184610361565b92915050565b5f82825260208201905092915050565b7f456c206172726179206e6f207469656e652074616e746f7320656c656d656e745f8201527f6f73000000000000000000000000000000000000000000000000000000000000602082015250565b5f6103f3602283610389565b91506103fe82610399565b604082019050919050565b5f6020820190508181035f830152610420816103e7565b9050919050565b7f4e487b71000000000000000000000000000000000000000000000000000000005f52601160045260245ffd5b5f61045e82610303565b915061046983610303565b925082820390508181111561048157610480610427565b5b92915050565b7f4e487b71000000000000000000000000000000000000000000000000000000005f52603260045260245ffd5b7f4e487b71000000000000000000000000000000000000000000000000000000005f52603160045260245ffd5b7f4e487b71000000000000000000000000000000000000000000000000000000005f52600160045260245ffdfea2646970667358221220a7f3933cf6734f57783564ad2dfd437ba28e30c76bec3b6e7666fbae9b9ef94f64736f6c634300081a0033",
			"opcodes": "PUSH1 0x80 PUSH1 0x40 MSTORE CALLVALUE DUP1 ISZERO PUSH1 0xE JUMPI PUSH0 DUP1 REVERT JUMPDEST POP PUSH2 0x544 DUP1 PUSH2 0x1C PUSH0 CODECOPY PUSH0 RETURN INVALID PUSH1 0x80 PUSH1 0x40 MSTORE CALLVALUE DUP1 ISZERO PUSH2 0xF JUMPI PUSH0 DUP1 REVERT JUMPDEST POP PUSH1 0x4 CALLDATASIZE LT PUSH2 0x3F JUMPI PUSH0 CALLDATALOAD PUSH1 0xE0 SHR DUP1 PUSH4 0x38D94193 EQ PUSH2 0x43 JUMPI DUP1 PUSH4 0x4CC82215 EQ PUSH2 0x73 JUMPI DUP1 PUSH4 0x7CB5946D EQ PUSH2 0x8F JUMPI JUMPDEST PUSH0 DUP1 REVERT JUMPDEST PUSH2 0x5D PUSH1 0x4 DUP1 CALLDATASIZE SUB DUP2 ADD SWAP1 PUSH2 0x58 SWAP2 SWAP1 PUSH2 0x336 JUMP JUMPDEST PUSH2 0x99 JUMP JUMPDEST PUSH1 0x40 MLOAD PUSH2 0x6A SWAP2 SWAP1 PUSH2 0x370 JUMP JUMPDEST PUSH1 0x40 MLOAD DUP1 SWAP2 SUB SWAP1 RETURN JUMPDEST PUSH2 0x8D PUSH1 0x4 DUP1 CALLDATASIZE SUB DUP2 ADD SWAP1 PUSH2 0x88 SWAP2 SWAP1 PUSH2 0x336 JUMP JUMPDEST PUSH2 0xB8 JUMP JUMPDEST STOP JUMPDEST PUSH2 0x97 PUSH2 0x175 JUMP JUMPDEST STOP JUMPDEST PUSH0 DUP2 DUP2 SLOAD DUP2 LT PUSH2 0xA7 JUMPI PUSH0 DUP1 REVERT JUMPDEST SWAP1 PUSH0 MSTORE PUSH1 0x20 PUSH0 KECCAK256 ADD PUSH0 SWAP2 POP SWAP1 POP SLOAD DUP2 JUMP JUMPDEST PUSH0 DUP1 SLOAD SWAP1 POP DUP2 LT PUSH2 0xFE JUMPI PUSH1 0x40 MLOAD PUSH32 0x8C379A000000000000000000000000000000000000000000000000000000000 DUP2 MSTORE PUSH1 0x4 ADD PUSH2 0xF5 SWAP1 PUSH2 0x409 JUMP JUMPDEST PUSH1 0x40 MLOAD DUP1 SWAP2 SUB SWAP1 REVERT JUMPDEST PUSH0 DUP1 PUSH1 0x1 PUSH0 DUP1 SLOAD SWAP1 POP PUSH2 0x111 SWAP2 SWAP1 PUSH2 0x454 JUMP JUMPDEST DUP2 SLOAD DUP2 LT PUSH2 0x122 JUMPI PUSH2 0x121 PUSH2 0x487 JUMP JUMPDEST JUMPDEST SWAP1 PUSH0 MSTORE PUSH1 0x20 PUSH0 KECCAK256 ADD SLOAD SWAP1 POP DUP1 PUSH0 DUP4 DUP2 SLOAD DUP2 LT PUSH2 0x141 JUMPI PUSH2 0x140 PUSH2 0x487 JUMP JUMPDEST JUMPDEST SWAP1 PUSH0 MSTORE PUSH1 0x20 PUSH0 KECCAK256 ADD DUP2 SWAP1 SSTORE POP PUSH0 DUP1 SLOAD DUP1 PUSH2 0x15E JUMPI PUSH2 0x15D PUSH2 0x4B4 JUMP JUMPDEST JUMPDEST PUSH1 0x1 SWAP1 SUB DUP2 DUP2 SWAP1 PUSH0 MSTORE PUSH1 0x20 PUSH0 KECCAK256 ADD PUSH0 SWAP1 SSTORE SWAP1 SSTORE POP POP JUMP JUMPDEST PUSH1 0x40 MLOAD DUP1 PUSH1 0xA0 ADD PUSH1 0x40 MSTORE DUP1 PUSH1 0x1 PUSH1 0xFF AND DUP2 MSTORE PUSH1 0x20 ADD PUSH1 0x2 PUSH1 0xFF AND DUP2 MSTORE PUSH1 0x20 ADD PUSH1 0x3 PUSH1 0xFF AND DUP2 MSTORE PUSH1 0x20 ADD PUSH1 0x4 PUSH1 0xFF AND DUP2 MSTORE PUSH1 0x20 ADD PUSH1 0x5 PUSH1 0xFF AND DUP2 MSTORE POP PUSH0 SWAP1 PUSH1 0x5 PUSH2 0x1BF SWAP3 SWAP2 SWAP1 PUSH2 0x294 JUMP JUMPDEST POP PUSH2 0x1CA PUSH1 0x1 PUSH2 0xB8 JUMP JUMPDEST PUSH1 0x1 PUSH0 DUP1 DUP2 SLOAD DUP2 LT PUSH2 0x1DF JUMPI PUSH2 0x1DE PUSH2 0x487 JUMP JUMPDEST JUMPDEST SWAP1 PUSH0 MSTORE PUSH1 0x20 PUSH0 KECCAK256 ADD SLOAD EQ PUSH2 0x1F6 JUMPI PUSH2 0x1F5 PUSH2 0x4E1 JUMP JUMPDEST JUMPDEST PUSH1 0x5 PUSH0 PUSH1 0x1 DUP2 SLOAD DUP2 LT PUSH2 0x20C JUMPI PUSH2 0x20B PUSH2 0x487 JUMP JUMPDEST JUMPDEST SWAP1 PUSH0 MSTORE PUSH1 0x20 PUSH0 KECCAK256 ADD SLOAD EQ PUSH2 0x223 JUMPI PUSH2 0x222 PUSH2 0x4E1 JUMP JUMPDEST JUMPDEST PUSH1 0x3 PUSH0 PUSH1 0x2 DUP2 SLOAD DUP2 LT PUSH2 0x239 JUMPI PUSH2 0x238 PUSH2 0x487 JUMP JUMPDEST JUMPDEST SWAP1 PUSH0 MSTORE PUSH1 0x20 PUSH0 KECCAK256 ADD SLOAD EQ PUSH2 0x250 JUMPI PUSH2 0x24F PUSH2 0x4E1 JUMP JUMPDEST JUMPDEST PUSH1 0x4 PUSH0 PUSH1 0x3 DUP2 SLOAD DUP2 LT PUSH2 0x266 JUMPI PUSH2 0x265 PUSH2 0x487 JUMP JUMPDEST JUMPDEST SWAP1 PUSH0 MSTORE PUSH1 0x20 PUSH0 KECCAK256 ADD SLOAD EQ PUSH2 0x27D JUMPI PUSH2 0x27C PUSH2 0x4E1 JUMP JUMPDEST JUMPDEST PUSH1 0x4 PUSH0 DUP1 SLOAD SWAP1 POP EQ PUSH2 0x292 JUMPI PUSH2 0x291 PUSH2 0x4E1 JUMP JUMPDEST JUMPDEST JUMP JUMPDEST DUP3 DUP1 SLOAD DUP3 DUP3 SSTORE SWAP1 PUSH0 MSTORE PUSH1 0x20 PUSH0 KECCAK256 SWAP1 DUP2 ADD SWAP3 DUP3 ISZERO PUSH2 0x2D3 JUMPI SWAP2 PUSH1 0x20 MUL DUP3 ADD JUMPDEST DUP3 DUP2 GT ISZERO PUSH2 0x2D2 JUMPI DUP3 MLOAD DUP3 SWAP1 PUSH1 0xFF AND SWAP1 SSTORE SWAP2 PUSH1 0x20 ADD SWAP2 SWAP1 PUSH1 0x1 ADD SWAP1 PUSH2 0x2B2 JUMP JUMPDEST JUMPDEST POP SWAP1 POP PUSH2 0x2E0 SWAP2 SWAP1 PUSH2 0x2E4 JUMP JUMPDEST POP SWAP1 JUMP JUMPDEST JUMPDEST DUP1 DUP3 GT ISZERO PUSH2 0x2FB JUMPI PUSH0 DUP2 PUSH0 SWAP1 SSTORE POP PUSH1 0x1 ADD PUSH2 0x2E5 JUMP JUMPDEST POP SWAP1 JUMP JUMPDEST PUSH0 DUP1 REVERT JUMPDEST PUSH0 DUP2 SWAP1 POP SWAP2 SWAP1 POP JUMP JUMPDEST PUSH2 0x315 DUP2 PUSH2 0x303 JUMP JUMPDEST DUP2 EQ PUSH2 0x31F JUMPI PUSH0 DUP1 REVERT JUMPDEST POP JUMP JUMPDEST PUSH0 DUP2 CALLDATALOAD SWAP1 POP PUSH2 0x330 DUP2 PUSH2 0x30C JUMP JUMPDEST SWAP3 SWAP2 POP POP JUMP JUMPDEST PUSH0 PUSH1 0x20 DUP3 DUP5 SUB SLT ISZERO PUSH2 0x34B JUMPI PUSH2 0x34A PUSH2 0x2FF JUMP JUMPDEST JUMPDEST PUSH0 PUSH2 0x358 DUP5 DUP3 DUP6 ADD PUSH2 0x322 JUMP JUMPDEST SWAP2 POP POP SWAP3 SWAP2 POP POP JUMP JUMPDEST PUSH2 0x36A DUP2 PUSH2 0x303 JUMP JUMPDEST DUP3 MSTORE POP POP JUMP JUMPDEST PUSH0 PUSH1 0x20 DUP3 ADD SWAP1 POP PUSH2 0x383 PUSH0 DUP4 ADD DUP5 PUSH2 0x361 JUMP JUMPDEST SWAP3 SWAP2 POP POP JUMP JUMPDEST PUSH0 DUP3 DUP3 MSTORE PUSH1 0x20 DUP3 ADD SWAP1 POP SWAP3 SWAP2 POP POP JUMP JUMPDEST PUSH32 0x456C206172726179206E6F207469656E652074616E746F7320656C656D656E74 PUSH0 DUP3 ADD MSTORE PUSH32 0x6F73000000000000000000000000000000000000000000000000000000000000 PUSH1 0x20 DUP3 ADD MSTORE POP JUMP JUMPDEST PUSH0 PUSH2 0x3F3 PUSH1 0x22 DUP4 PUSH2 0x389 JUMP JUMPDEST SWAP2 POP PUSH2 0x3FE DUP3 PUSH2 0x399 JUMP JUMPDEST PUSH1 0x40 DUP3 ADD SWAP1 POP SWAP2 SWAP1 POP JUMP JUMPDEST PUSH0 PUSH1 0x20 DUP3 ADD SWAP1 POP DUP2 DUP2 SUB PUSH0 DUP4 ADD MSTORE PUSH2 0x420 DUP2 PUSH2 0x3E7 JUMP JUMPDEST SWAP1 POP SWAP2 SWAP1 POP JUMP JUMPDEST PUSH32 0x4E487B7100000000000000000000000000000000000000000000000000000000 PUSH0 MSTORE PUSH1 0x11 PUSH1 0x4 MSTORE PUSH1 0x24 PUSH0 REVERT JUMPDEST PUSH0 PUSH2 0x45E DUP3 PUSH2 0x303 JUMP JUMPDEST SWAP2 POP PUSH2 0x469 DUP4 PUSH2 0x303 JUMP JUMPDEST SWAP3 POP DUP3 DUP3 SUB SWAP1 POP DUP2 DUP2 GT ISZERO PUSH2 0x481 JUMPI PUSH2 0x480 PUSH2 0x427 JUMP JUMPDEST JUMPDEST SWAP3 SWAP2 POP POP JUMP JUMPDEST PUSH32 0x4E487B7100000000000000000000000000000000000000000000000000000000 PUSH0 MSTORE PUSH1 0x32 PUSH1 0x4 MSTORE PUSH1 0x24 PUSH0 REVERT JUMPDEST PUSH32 0x4E487B7100000000000000000000000000000000000000000000000000000000 PUSH0 MSTORE PUSH1 0x31 PUSH1 0x4 MSTORE PUSH1 0x24 PUSH0 REVERT JUMPDEST PUSH32 0x4E487B7100000000000000000000000000000000000000000000000000000000 PUSH0 MSTORE PUSH1 0x1 PUSH1 0x4 MSTORE PUSH1 0x24 PUSH0 REVERT INVALID LOG2 PUSH5 0x6970667358 0x22 SLT KECCAK256 0xA7 RETURN SWAP4 EXTCODECOPY 0xF6 PUSH20 0x4F57783564AD2DFD437BA28E30C76BEC3B6E7666 0xFB 0xAE SWAP12 SWAP15 0xF9 0x4F PUSH5 0x736F6C6343 STOP ADDMOD BYTE STOP CALLER "
		},
		"gasEstimates": {
			"creation": {
				"codeDepositCost": "269600",
				"executionCost": "310",
				"totalCost": "269910"
			},
			"external": {
				"array(uint256)": "infinite",
				"prueba()": "infinite",
				"remove(uint256)": "infinite"
			}
		},
		"methodIdentifiers": {
			"array(uint256)": "38d94193",
			"prueba()": "7cb5946d",
			"remove(uint256)": "4cc82215"
		}
	},
	"abi": [
		{
			"inputs": [
				{
					"internalType": "uint256",
					"name": "",
					"type": "uint256"
				}
			],
			"name": "array",
			"outputs": [
				{
					"internalType": "uint256",
					"name": "",
					"type": "uint256"
				}
			],
			"stateMutability": "view",
			"type": "function"
		},
		{
			"inputs": [],
			"name": "prueba",
			"outputs": [],
			"stateMutability": "nonpayable",
			"type": "function"
		},
		{
			"inputs": [
				{
					"internalType": "uint256",
					"name": "_index",
					"type": "uint256"
				}
			],
			"name": "remove",
			"outputs": [],
			"stateMutability": "nonpayable",
			"type": "function"
		}
	]
}